{
  "contractName": "Ownable",
  "abi": [
    {
      "inputs": [],
      "stateMutability": "nonpayable",
      "type": "constructor"
    },
    {
      "anonymous": false,
      "inputs": [
        {
          "indexed": true,
          "internalType": "address",
          "name": "previousOwner",
          "type": "address"
        },
        {
          "indexed": true,
          "internalType": "address",
          "name": "newOwner",
          "type": "address"
        }
      ],
      "name": "OwnershipTransferred",
      "type": "event"
    },
    {
      "inputs": [],
      "name": "owner",
      "outputs": [
        {
          "internalType": "address",
          "name": "",
          "type": "address"
        }
      ],
      "stateMutability": "view",
      "type": "function"
    },
    {
      "inputs": [],
      "name": "renounceOwnership",
      "outputs": [],
      "stateMutability": "nonpayable",
      "type": "function"
    },
    {
      "inputs": [
        {
          "internalType": "address",
          "name": "newOwner",
          "type": "address"
        }
      ],
      "name": "transferOwnership",
      "outputs": [],
      "stateMutability": "nonpayable",
      "type": "function"
    }
  ],
  "bytecode": "0x608060405234801561001057600080fd5b5061002d61002261003260201b60201c565b61003a60201b60201c565b610209565b600033905090565b600073ffffffffffffffffffffffffffffffffffffffff168173ffffffffffffffffffffffffffffffffffffffff16036100a9576040517f08c379a00000000000000000000000000000000000000000000000000000000081526004016100a0906101e9565b60405180910390fd5b8073ffffffffffffffffffffffffffffffffffffffff1660008054906101000a900473ffffffffffffffffffffffffffffffffffffffff1673ffffffffffffffffffffffffffffffffffffffff167f8be0079c531659141344cd1fd0a4f28419497f9722a3daafe3b4186f6b6457e060405160405180910390a3806000806101000a81548173ffffffffffffffffffffffffffffffffffffffff021916908373ffffffffffffffffffffffffffffffffffffffff16021790555050565b600082825260208201905092915050565b7f4f776e61626c653a206e6577206f776e657220697320746865207a65726f206160008201527f6464726573730000000000000000000000000000000000000000000000000000602082015250565b60006101d3602683610166565b91506101de82610177565b604082019050919050565b60006020820190508181036000830152610202816101c6565b9050919050565b6105da806102186000396000f3fe608060405234801561001057600080fd5b50600436106100415760003560e01c8063715018a6146100465780638da5cb5b14610050578063f2fde38b1461006e575b600080fd5b61004e61008a565b005b6100586101dd565b604051610065919061041c565b60405180910390f35b61008860048036038101906100839190610468565b610206565b005b6100926102a7565b73ffffffffffffffffffffffffffffffffffffffff1660008054906101000a900473ffffffffffffffffffffffffffffffffffffffff1673ffffffffffffffffffffffffffffffffffffffff161461011f576040517f08c379a0000000000000000000000000000000000000000000000000000000008152600401610116906104f2565b60405180910390fd5b600073ffffffffffffffffffffffffffffffffffffffff1660008054906101000a900473ffffffffffffffffffffffffffffffffffffffff1673ffffffffffffffffffffffffffffffffffffffff167f8be0079c531659141344cd1fd0a4f28419497f9722a3daafe3b4186f6b6457e060405160405180910390a360008060006101000a81548173ffffffffffffffffffffffffffffffffffffffff021916908373ffffffffffffffffffffffffffffffffffffffff160217905550565b60008060009054906101000a900473ffffffffffffffffffffffffffffffffffffffff16905090565b61020e6102a7565b73ffffffffffffffffffffffffffffffffffffffff1660008054906101000a900473ffffffffffffffffffffffffffffffffffffffff1673ffffffffffffffffffffffffffffffffffffffff161461029b576040517f08c379a0000000000000000000000000000000000000000000000000000000008152600401610292906104f2565b60405180910390fd5b6102a4816102af565b50565b600033905090565b600073ffffffffffffffffffffffffffffffffffffffff168173ffffffffffffffffffffffffffffffffffffffff160361031e576040517f08c379a000000000000000000000000000000000000000000000000000000000815260040161031590610584565b60405180910390fd5b8073ffffffffffffffffffffffffffffffffffffffff1660008054906101000a900473ffffffffffffffffffffffffffffffffffffffff1673ffffffffffffffffffffffffffffffffffffffff167f8be0079c531659141344cd1fd0a4f28419497f9722a3daafe3b4186f6b6457e060405160405180910390a3806000806101000a81548173ffffffffffffffffffffffffffffffffffffffff021916908373ffffffffffffffffffffffffffffffffffffffff16021790555050565b600073ffffffffffffffffffffffffffffffffffffffff82169050919050565b6000610406826103db565b9050919050565b610416816103fb565b82525050565b6000602082019050610431600083018461040d565b92915050565b600080fd5b610445816103fb565b811461045057600080fd5b50565b6000813590506104628161043c565b92915050565b60006020828403121561047e5761047d610437565b5b600061048c84828501610453565b91505092915050565b600082825260208201905092915050565b7f4f776e61626c653a2063616c6c6572206973206e6f7420746865206f776e6572600082015250565b60006104dc602083610495565b91506104e7826104a6565b602082019050919050565b6000602082019050818103600083015261050b816104cf565b9050919050565b7f4f776e61626c653a206e6577206f776e657220697320746865207a65726f206160008201527f6464726573730000000000000000000000000000000000000000000000000000602082015250565b600061056e602683610495565b915061057982610512565b604082019050919050565b6000602082019050818103600083015261059d81610561565b905091905056fea2646970667358221220e8a406a9b796e9c3a0edbe542b572e46bc28c6b74a02770d4f86d71b2732ab6664736f6c634300080e0033",
  "immutableReferences": {},
  "source": "\r\n//SPDX-License-Identifier: MIT\r\npragma solidity ^0.8.0;\r\ninterface IBEP20 {\r\n  /**\r\n   * @dev Returns the amount of tokens in existence.\r\n   */\r\n  function totalSupply() external view returns (uint256);\r\n\r\n  /**\r\n   * @dev Returns the token decimals.\r\n   */\r\n  function decimals() external view returns (uint8);\r\n\r\n  /**\r\n   * @dev Returns the token symbol.\r\n   */\r\n  function symbol() external view returns (string memory);\r\n\r\n  /**\r\n  * @dev Returns the token name.\r\n  */\r\n  function name() external view returns (string memory);\r\n\r\n  /**\r\n   * @dev Returns the bep token owner.\r\n   */\r\n  function getOwner() external view returns (address);\r\n\r\n  /**\r\n   * @dev Returns the amount of tokens owned by `account`.\r\n   */\r\n  function balanceOf(address account) external view returns (uint256);\r\n\r\n  /**\r\n   * @dev Moves `amount` tokens from the caller's account to `recipient`.\r\n   *\r\n   * Returns a boolean value indicating whether the operation succeeded.\r\n   *\r\n   * Emits a {Transfer} event.\r\n   */\r\n  function transfer(address recipient, uint256 amount) external returns (bool);\r\n\r\n  /**\r\n   * @dev Returns the remaining number of tokens that `spender` will be\r\n   * allowed to spend on behalf of `owner` through {transferFrom}. This is\r\n   * zero by default.\r\n   *\r\n   * This value changes when {approve} or {transferFrom} are called.\r\n   */\r\n  function allowance(address _owner, address spender) external view returns (uint256);\r\n\r\n  /**\r\n   * @dev Sets `amount` as the allowance of `spender` over the caller's tokens.\r\n   *\r\n   * Returns a boolean value indicating whether the operation succeeded.\r\n   *\r\n   * IMPORTANT: Beware that changing an allowance with this method brings the risk\r\n   * that someone may use both the old and the new allowance by unfortunate\r\n   * transaction ordering. One possible solution to mitigate this race\r\n   * condition is to first reduce the spender's allowance to 0 and set the\r\n   * desired value afterwards:\r\n   * https://github.com/ethereum/EIPs/issues/20#issuecomment-263524729\r\n   *\r\n   * Emits an {Approval} event.\r\n   */\r\n  function approve(address spender, uint256 amount) external returns (bool);\r\n\r\n  /**\r\n   * @dev Moves `amount` tokens from `sender` to `recipient` using the\r\n   * allowance mechanism. `amount` is then deducted from the caller's\r\n   * allowance.\r\n   *\r\n   * Returns a boolean value indicating whether the operation succeeded.\r\n   *\r\n   * Emits a {Transfer} event.\r\n   */\r\n  function transferFrom(address sender, address recipient, uint256 amount) external returns (bool);\r\n\r\n  /**\r\n   * @dev Emitted when `value` tokens are moved from one account (`from`) to\r\n   * another (`to`).\r\n   *\r\n   * Note that `value` may be zero.\r\n   */\r\n  event Transfer(address indexed from, address indexed to, uint256 value);\r\n\r\n  /**\r\n   * @dev Emitted when the allowance of a `spender` for an `owner` is set by\r\n   * a call to {approve}. `value` is the new allowance.\r\n   */\r\n  event Approval(address indexed owner, address indexed spender, uint256 value);\r\n}\r\n\r\n/*\r\n * @dev Provides information about the current execution context, including the\r\n * sender of the transaction and its data. While these are generally available\r\n * via msg.sender and msg.data, they should not be accessed in such a direct\r\n * manner, since when dealing with GSN meta-transactions the account sending and\r\n * paying for execution may not be the actual sender (as far as an application\r\n * is concerned).\r\n *\r\n * This contract is only required for intermediate, library-like contracts.\r\n */\r\nabstract contract Context {\r\n    function _msgSender() internal view virtual returns (address) {\r\n        return msg.sender;\r\n    }\r\n\r\n    function _msgData() internal view virtual returns (bytes calldata) {\r\n        return msg.data;\r\n    }\r\n}\r\n\r\n\r\n/**\r\n * @dev Wrappers over Solidity's arithmetic operations with added overflow\r\n * checks.\r\n *\r\n * Arithmetic operations in Solidity wrap on overflow. This can easily result\r\n * in bugs, because programmers usually assume that an overflow raises an\r\n * error, which is the standard behavior in high level programming languages.\r\n * `SafeMath` restores this intuition by reverting the transaction when an\r\n * operation overflows.\r\n *\r\n * Using this library instead of the unchecked operations eliminates an entire\r\n * class of bugs, so it's recommended to use it always.\r\n */\r\nlibrary SafeMath {\r\n  /**\r\n   * @dev Returns the addition of two unsigned integers, reverting on\r\n   * overflow.\r\n   *\r\n   * Counterpart to Solidity's `+` operator.\r\n   *\r\n   * Requirements:\r\n   * - Addition cannot overflow.\r\n   */\r\n  function add(uint256 a, uint256 b) internal pure returns (uint256) {\r\n    uint256 c = a + b;\r\n    require(c >= a, \"SafeMath: addition overflow\");\r\n\r\n    return c;\r\n  }\r\n\r\n  /**\r\n   * @dev Returns the subtraction of two unsigned integers, reverting on\r\n   * overflow (when the result is negative).\r\n   *\r\n   * Counterpart to Solidity's `-` operator.\r\n   *\r\n   * Requirements:\r\n   * - Subtraction cannot overflow.\r\n   */\r\n  function sub(uint256 a, uint256 b) internal pure returns (uint256) {\r\n    return sub(a, b, \"SafeMath: subtraction overflow\");\r\n  }\r\n\r\n  /**\r\n   * @dev Returns the subtraction of two unsigned integers, reverting with custom message on\r\n   * overflow (when the result is negative).\r\n   *\r\n   * Counterpart to Solidity's `-` operator.\r\n   *\r\n   * Requirements:\r\n   * - Subtraction cannot overflow.\r\n   */\r\n  function sub(uint256 a, uint256 b, string memory errorMessage) internal pure returns (uint256) {\r\n    require(b <= a, errorMessage);\r\n    uint256 c = a - b;\r\n\r\n    return c;\r\n  }\r\n\r\n  /**\r\n   * @dev Returns the multiplication of two unsigned integers, reverting on\r\n   * overflow.\r\n   *\r\n   * Counterpart to Solidity's `*` operator.\r\n   *\r\n   * Requirements:\r\n   * - Multiplication cannot overflow.\r\n   */\r\n  function mul(uint256 a, uint256 b) internal pure returns (uint256) {\r\n    // Gas optimization: this is cheaper than requiring 'a' not being zero, but the\r\n    // benefit is lost if 'b' is also tested.\r\n    // See: https://github.com/OpenZeppelin/openzeppelin-contracts/pull/522\r\n    if (a == 0) {\r\n      return 0;\r\n    }\r\n\r\n    uint256 c = a * b;\r\n    require(c / a == b, \"SafeMath: multiplication overflow\");\r\n\r\n    return c;\r\n  }\r\n\r\n  /**\r\n   * @dev Returns the integer division of two unsigned integers. Reverts on\r\n   * division by zero. The result is rounded towards zero.\r\n   *\r\n   * Counterpart to Solidity's `/` operator. Note: this function uses a\r\n   * `revert` opcode (which leaves remaining gas untouched) while Solidity\r\n   * uses an invalid opcode to revert (consuming all remaining gas).\r\n   *\r\n   * Requirements:\r\n   * - The divisor cannot be zero.\r\n   */\r\n  function div(uint256 a, uint256 b) internal pure returns (uint256) {\r\n    return div(a, b, \"SafeMath: division by zero\");\r\n  }\r\n\r\n  /**\r\n   * @dev Returns the integer division of two unsigned integers. Reverts with custom message on\r\n   * division by zero. The result is rounded towards zero.\r\n   *\r\n   * Counterpart to Solidity's `/` operator. Note: this function uses a\r\n   * `revert` opcode (which leaves remaining gas untouched) while Solidity\r\n   * uses an invalid opcode to revert (consuming all remaining gas).\r\n   *\r\n   * Requirements:\r\n   * - The divisor cannot be zero.\r\n   */\r\n  function div(uint256 a, uint256 b, string memory errorMessage) internal pure returns (uint256) {\r\n    // Solidity only automatically asserts when dividing by 0\r\n    require(b > 0, errorMessage);\r\n    uint256 c = a / b;\r\n    // assert(a == b * c + a % b); // There is no case in which this doesn't hold\r\n\r\n    return c;\r\n  }\r\n\r\n  /**\r\n   * @dev Returns the remainder of dividing two unsigned integers. (unsigned integer modulo),\r\n   * Reverts when dividing by zero.\r\n   *\r\n   * Counterpart to Solidity's `%` operator. This function uses a `revert`\r\n   * opcode (which leaves remaining gas untouched) while Solidity uses an\r\n   * invalid opcode to revert (consuming all remaining gas).\r\n   *\r\n   * Requirements:\r\n   * - The divisor cannot be zero.\r\n   */\r\n  function mod(uint256 a, uint256 b) internal pure returns (uint256) {\r\n    return mod(a, b, \"SafeMath: modulo by zero\");\r\n  }\r\n\r\n  /**\r\n   * @dev Returns the remainder of dividing two unsigned integers. (unsigned integer modulo),\r\n   * Reverts with custom message when dividing by zero.\r\n   *\r\n   * Counterpart to Solidity's `%` operator. This function uses a `revert`\r\n   * opcode (which leaves remaining gas untouched) while Solidity uses an\r\n   * invalid opcode to revert (consuming all remaining gas).\r\n   *\r\n   * Requirements:\r\n   * - The divisor cannot be zero.\r\n   */\r\n  function mod(uint256 a, uint256 b, string memory errorMessage) internal pure returns (uint256) {\r\n    require(b != 0, errorMessage);\r\n    return a % b;\r\n  }\r\n}\r\n\r\n/**\r\n * @dev Contract module which provides a basic access control mechanism, where\r\n * there is an account (an owner) that can be granted exclusive access to\r\n * specific functions.\r\n *\r\n * By default, the owner account will be the one that deploys the contract. This\r\n * can later be changed with {transferOwnership}.\r\n *\r\n * This module is used through inheritance. It will make available the modifier\r\n * `onlyOwner`, which can be applied to your functions to restrict their use to\r\n * the owner.\r\n */\r\ncontract Ownable is Context {\r\n  address private _owner;\r\n\r\n  event OwnershipTransferred(address indexed previousOwner, address indexed newOwner);\r\n\r\n  /**\r\n   * @dev Initializes the contract setting the deployer as the initial owner.\r\n   */\r\n constructor() {\r\n        _transferOwnership(_msgSender());\r\n    }\r\n\r\n  /**\r\n   * @dev Returns the address of the current owner.\r\n   */\r\n  function owner() public view returns (address) {\r\n    return _owner;\r\n  }\r\n\r\n  /**\r\n   * @dev Throws if called by any account other than the owner.\r\n   */\r\n  modifier onlyOwner() {\r\n    require(_owner == _msgSender(), \"Ownable: caller is not the owner\");\r\n    _;\r\n  }\r\n\r\n  /**\r\n   * @dev Leaves the contract without owner. It will not be possible to call\r\n   * `onlyOwner` functions anymore. Can only be called by the current owner.\r\n   *\r\n   * NOTE: Renouncing ownership will leave the contract without an owner,\r\n   * thereby removing any functionality that is only available to the owner.\r\n   */\r\n  function renounceOwnership() public onlyOwner {\r\n    emit OwnershipTransferred(_owner, address(0));\r\n    _owner = address(0);\r\n  }\r\n\r\n  /**\r\n   * @dev Transfers ownership of the contract to a new account (`newOwner`).\r\n   * Can only be called by the current owner.\r\n   */\r\n  function transferOwnership(address newOwner) public onlyOwner {\r\n    _transferOwnership(newOwner);\r\n  }\r\n\r\n  /**\r\n   * @dev Transfers ownership of the contract to a new account (`newOwner`).\r\n   */\r\n  function _transferOwnership(address newOwner) internal {\r\n    require(newOwner != address(0), \"Ownable: new owner is the zero address\");\r\n    emit OwnershipTransferred(_owner, newOwner);\r\n    _owner = newOwner;\r\n  }\r\n}\r\n\r\ncontract ARTEXtoken is Context, IBEP20, Ownable {\r\n  using SafeMath for uint256;\r\n\r\n  mapping (address => uint256) private _balances;\r\n\r\n  mapping (address => mapping (address => uint256)) private _allowances;\r\n\r\n  uint256 private _totalSupply;\r\n  uint8 private _decimals;\r\n  string private _symbol;\r\n  string private _name;\r\n\r\n  constructor()  {\r\n    _name = \"Artex Token\";\r\n    _symbol = \"ARTEX\";\r\n    _decimals = 18;\r\n    _totalSupply = 100000000 * 10 ** 18;\r\n    _balances[msg.sender] = _totalSupply;\r\n\r\n    emit Transfer(address(0), msg.sender, _totalSupply);\r\n  }\r\n\r\n  /**\r\n   * @dev Returns the bep token owner.\r\n   */\r\n  function getOwner() external view override returns (address) {\r\n    return owner();\r\n  }\r\n\r\n\r\n\r\n  /**\r\n   * @dev Returns the token decimals.\r\n   */\r\n  function decimals() external view override returns (uint8) {\r\n    return _decimals;\r\n  }\r\n\r\n  /**\r\n   * @dev Returns the token symbol.\r\n   */\r\n  function symbol() external view override returns (string memory) {\r\n    return _symbol;\r\n  }\r\n\r\n  /**\r\n  * @dev Returns the token name.\r\n  */\r\n  function name() external view override returns (string memory) {\r\n    return _name;\r\n  }\r\n\r\n  /**\r\n   * @dev See {BEP20-totalSupply}.\r\n   */\r\n  function totalSupply() external view override returns (uint256) {\r\n    return _totalSupply;\r\n  }\r\n\r\n  /**\r\n   * @dev See {BEP20-balanceOf}.\r\n   */\r\n  function balanceOf(address account) external view override returns (uint256) {\r\n    return _balances[account];\r\n  }\r\n\r\n  /**\r\n   * @dev See {BEP20-transfer}.\r\n   *\r\n   * Requirements:\r\n   *\r\n   * - `recipient` cannot be the zero address.\r\n   * - the caller must have a balance of at least `amount`.\r\n   */\r\n  function transfer(address recipient, uint256 amount) external override returns (bool) {\r\n    _transfer(_msgSender(), recipient, amount);\r\n    return true;\r\n  }\r\n\r\n  /**\r\n   * @dev See {BEP20-allowance}.\r\n   */\r\n  function allowance(address owner, address spender) external view override returns (uint256) {\r\n    return _allowances[owner][spender];\r\n  }\r\n\r\n  /**\r\n   * @dev See {BEP20-approve}.\r\n   *\r\n   * Requirements:\r\n   *\r\n   * - `spender` cannot be the zero address.\r\n   */\r\n  function approve(address spender, uint256 amount) external override returns (bool) {\r\n    _approve(_msgSender(), spender, amount);\r\n    return true;\r\n  }\r\n\r\n  /**\r\n   * @dev See {BEP20-transferFrom}.\r\n   *\r\n   * Emits an {Approval} event indicating the updated allowance. This is not\r\n   * required by the EIP. See the note at the beginning of {BEP20};\r\n   *\r\n   * Requirements:\r\n   * - `sender` and `recipient` cannot be the zero address.\r\n   * - `sender` must have a balance of at least `amount`.\r\n   * - the caller must have allowance for `sender`'s tokens of at least\r\n   * `amount`.\r\n   */\r\n  function transferFrom(address sender, address recipient, uint256 amount) external override returns (bool) {\r\n    _transfer(sender, recipient, amount);\r\n    _approve(sender, recipient, amount);\r\n   \r\n   \r\n    //_approve(sender, _msgSender(), _allowances[sender][_msgSender()].sub(amount, \"BEP20: transfer amount exceeds allowance\"));\r\n    return true;\r\n  }\r\n\r\n  /**\r\n   * @dev Atomically increases the allowance granted to `spender` by the caller.\r\n   *\r\n   * This is an alternative to {approve} that can be used as a mitigation for\r\n   * problems described in {BEP20-approve}.\r\n   *\r\n   * Emits an {Approval} event indicating the updated allowance.\r\n   *\r\n   * Requirements:\r\n   *\r\n   * - `spender` cannot be the zero address.\r\n   */\r\n  function increaseAllowance(address spender, uint256 addedValue) public returns (bool) {\r\n    _approve(_msgSender(), spender, _allowances[_msgSender()][spender].add(addedValue));\r\n    return true;\r\n  }\r\n\r\n  /**\r\n   * @dev Atomically decreases the allowance granted to `spender` by the caller.\r\n   *\r\n   * This is an alternative to {approve} that can be used as a mitigation for\r\n   * problems described in {BEP20-approve}.\r\n   *\r\n   * Emits an {Approval} event indicating the updated allowance.\r\n   *\r\n   * Requirements:\r\n   *\r\n   * - `spender` cannot be the zero address.\r\n   * - `spender` must have allowance for the caller of at least\r\n   * `subtractedValue`.\r\n   */\r\n  function decreaseAllowance(address spender, uint256 subtractedValue) public returns (bool) {\r\n    _approve(_msgSender(), spender, _allowances[_msgSender()][spender].sub(subtractedValue, \"BEP20: decreased allowance below zero\"));\r\n    return true;\r\n  }\r\n\r\n  /**\r\n   * @dev Creates `amount` tokens and assigns them to `msg.sender`, increasing\r\n   * the total supply.\r\n   *\r\n   * Requirements\r\n   *\r\n   * - `msg.sender` must be the token owner\r\n   */\r\n  function mint(uint256 amount) public onlyOwner returns (bool) {\r\n    _mint(_msgSender(), amount);\r\n    return true;\r\n  }\r\n\r\n  /**\r\n   * @dev Moves tokens `amount` from `sender` to `recipient`.\r\n   *\r\n   * This is internal function is equivalent to {transfer}, and can be used to\r\n   * e.g. implement automatic token fees, slashing mechanisms, etc.\r\n   *\r\n   * Emits a {Transfer} event.\r\n   *\r\n   * Requirements:\r\n   *\r\n   * - `sender` cannot be the zero address.\r\n   * - `recipient` cannot be the zero address.\r\n   * - `sender` must have a balance of at least `amount`.\r\n   */\r\n  function _transfer(address sender, address recipient, uint256 amount) internal {\r\n    require(sender != address(0), \"BEP20: transfer from the zero address\");\r\n    require(recipient != address(0), \"BEP20: transfer to the zero address\");\r\n\r\n    _balances[sender] = _balances[sender].sub(amount, \"BEP20: transfer amount exceeds balance\");\r\n    _balances[recipient] = _balances[recipient].add(amount);\r\n    emit Transfer(sender, recipient, amount);\r\n  }\r\n\r\n  /** @dev Creates `amount` tokens and assigns them to `account`, increasing\r\n   * the total supply.\r\n   *\r\n   * Emits a {Transfer} event with `from` set to the zero address.\r\n   *\r\n   * Requirements\r\n   *\r\n   * - `to` cannot be the zero address.\r\n   */\r\n  function _mint(address account, uint256 amount) internal {\r\n    require(account != address(0), \"BEP20: mint to the zero address\");\r\n\r\n    _totalSupply = _totalSupply.add(amount);\r\n    _balances[account] = _balances[account].add(amount);\r\n    emit Transfer(address(0), account, amount);\r\n  }\r\n\r\n  /**\r\n   * @dev Destroys `amount` tokens from `account`, reducing the\r\n   * total supply.\r\n   *\r\n   * Emits a {Transfer} event with `to` set to the zero address.\r\n   *\r\n   * Requirements\r\n   *\r\n   * - `account` cannot be the zero address.\r\n   * - `account` must have at least `amount` tokens.\r\n   */\r\n  function _burn(address account, uint256 amount) internal {\r\n    require(account != address(0), \"BEP20: burn from the zero address\");\r\n\r\n    _balances[account] = _balances[account].sub(amount, \"BEP20: burn amount exceeds balance\");\r\n    _totalSupply = _totalSupply.sub(amount);\r\n    emit Transfer(account, address(0), amount);\r\n  }\r\n\r\n  /**\r\n   * @dev Sets `amount` as the allowance of `spender` over the `owner`s tokens.\r\n   *\r\n   * This is internal function is equivalent to `approve`, and can be used to\r\n   * e.g. set automatic allowances for certain subsystems, etc.\r\n   *\r\n   * Emits an {Approval} event.\r\n   *\r\n   * Requirements:\r\n   *\r\n   * - `owner` cannot be the zero address.\r\n   * - `spender` cannot be the zero address.\r\n   */\r\n  function _approve(address owner, address spender, uint256 amount) internal {\r\n    require(owner != address(0), \"BEP20: approve from the zero address\");\r\n    require(spender != address(0), \"BEP20: approve to the zero address\");\r\n\r\n    _allowances[owner][spender] = amount;\r\n    emit Approval(owner, spender, amount);\r\n  }\r\n\r\n  /**\r\n   * @dev Destroys `amount` tokens from `account`.`amount` is then deducted\r\n   * from the caller's allowance.\r\n   *\r\n   * See {_burn} and {_approve}.\r\n   */\r\n  function _burnFrom(address account, uint256 amount) internal {\r\n    _burn(account, amount);\r\n    _approve(account, _msgSender(), _allowances[account][_msgSender()].sub(amount, \"BEP20: burn amount exceeds allowance\"));\r\n  }\r\n}\r\n\r\n\r\ncontract Staking_Pool is ARTEXtoken {\r\n\r\n    bool public paused = false;\r\n\r\n    uint256 private token_decimal = 1 * 10 ** 18;\r\n    uint256 private R_token_decimal = 1 * 10 ** 18;\r\n\r\n    uint256 public _60Days_Reward;\r\n    uint256 public _90Days_Reward;\r\n    uint256 public _120Days_Reward;\r\n    uint256 public _365Days_Reward;\r\n\r\n  \r\n    \r\n    uint public deductionPer;\r\n\r\n    struct dataBase {\r\n        address person;\r\n        uint256 duration;\r\n        uint256 stake_time;\r\n        uint256 amount;\r\n        uint256 id;  // 1 = 60 days , 2 = 90 days, 3 = 120 days, 4 = 365 days\r\n        uint256 count;\r\n    }\r\n\r\n    dataBase[] public _userdata;\r\n  \r\n  // number of all investment\r\n  uint private totalInvestmentCount;\r\n\r\n    mapping(address=>uint256) public user_rtime;\r\n\r\n    IBEP20 public Stake_Token;\r\n    IBEP20 public Reward_Token;\r\n\r\n\r\n\r\n\r\n    function Token_Modifier(IBEP20 _Stake, IBEP20 _Reward) public onlyOwner{\r\n        Stake_Token = _Stake;\r\n        Reward_Token = _Reward;\r\n    }\r\n\r\n    function set_Reward( uint _60days, uint _90days, uint _120days, uint _365days) public onlyOwner {\r\n        _60Days_Reward = _60days * R_token_decimal;\r\n        _90Days_Reward = _90days * R_token_decimal;\r\n        _120Days_Reward = _120days * R_token_decimal;\r\n        _365Days_Reward = _365days * R_token_decimal;\r\n    }\r\n\r\n    function setDec(uint tokenA, uint tokenB) public onlyOwner {\r\n        token_decimal = 1 * 10 ** tokenA;\r\n        R_token_decimal = 1 * 10 ** tokenB;\r\n    }\r\n\r\n function setDeductionPer(uint per) public onlyOwner {\r\n        deductionPer = per;\r\n    }\r\n\r\n    function Stake(uint _pid,uint256 _amount) public { \r\n        \r\n        address _person = msg.sender;\r\n        require(!paused,\"Staking Pool is Paused!!\");\r\n        _amount = _amount * token_decimal;\r\n       // require(Stake_Token.allowance(msg.sender,address(this)) >= _amount,\"Check your Allowance\");\r\n        Stake_Token.transferFrom(msg.sender,address(this),_amount);\r\n        if(_pid == 1) {           \r\n            uint256 time = block.timestamp + 60 days;   //make it to 60 days\r\n            user_rtime[_person] = time;\r\n\r\n            dataBase memory newdata = dataBase(_person,time,block.timestamp,_amount,_pid,totalInvestmentCount);  /// order must be same\r\n           _userdata.push(newdata);   \r\n            totalInvestmentCount++;\r\n        }\r\n\r\n        else if(_pid == 2) {\r\n            uint256 time = block.timestamp + 90 days; //60 days;\r\n            user_rtime[_person] = time;\r\n\r\n            dataBase memory newdata = dataBase(_person,time,block.timestamp,_amount,_pid,totalInvestmentCount);  /// order must be same\r\n           _userdata.push(newdata);   \r\n            totalInvestmentCount++;\r\n        }\r\n\r\n        else if(_pid == 3) {\r\n            uint256 time = block.timestamp +  120 days; //90 days;\r\n            user_rtime[_person] = time;\r\n\r\n            dataBase memory newdata = dataBase(_person,time,block.timestamp,_amount,_pid,totalInvestmentCount);  /// order must be same\r\n           _userdata.push(newdata);   \r\n            totalInvestmentCount++;\r\n        }\r\n        else if(_pid == 4) {\r\n            uint256 time = block.timestamp +  365 days; //90 days;\r\n            user_rtime[_person] = time;\r\n\r\n            dataBase memory newdata = dataBase(_person,time,block.timestamp,_amount,_pid,totalInvestmentCount);  /// order must be same\r\n           _userdata.push(newdata);   \r\n            totalInvestmentCount++;\r\n        }\r\n    }\r\n\r\n     function getCount()\r\n      external\r\n      view\r\n      returns (uint)\r\n    {\r\n      return _userdata.length;\r\n    }\r\n\r\n    function get_Reward(uint _cnt) public {\r\n\r\n        require(!paused,\"Staking Pool is Paused!!\");\r\n\r\n        for(uint i = 0 ; i < _userdata.length ; i++) {\r\n            \r\n            if(_userdata[i].person == msg.sender){\r\n\r\n                if(_userdata[i].id == 1 && _userdata[i].count == _cnt) {  //60 days\r\n                    require(block.timestamp >= _userdata[i].duration,\"You can't get reward Now!\");\r\n                    \r\n                    Reward_Token.transfer(msg.sender,calulateReward(_userdata[i].amount,_60Days_Reward));\r\n                    Stake_Token.transfer(msg.sender,_userdata[i].amount);\r\n                    \r\n                    remove_data(i);\r\n                    user_rtime[msg.sender] = 0;\r\n                    break;\r\n                }\r\n                else if(_userdata[i].id == 2  && _userdata[i].count == _cnt) { //60 days\r\n                    require(block.timestamp >= _userdata[i].duration,\"You can't get reward Now!\");\r\n                    \r\n                    Reward_Token.transfer(msg.sender,calulateReward(_userdata[i].amount,_90Days_Reward));\r\n                    Stake_Token.transfer(msg.sender,_userdata[i].amount);\r\n                    \r\n                    remove_data(i);\r\n                    user_rtime[msg.sender] = 0;\r\n                    break;\r\n                }\r\n                else if(_userdata[i].id == 3 && _userdata[i].count == _cnt) { //120 days\r\n                    require(block.timestamp >= _userdata[i].duration,\"You can't get reward Now!\");\r\n                    \r\n                    Reward_Token.transfer(msg.sender,calulateReward(_userdata[i].amount,_120Days_Reward));\r\n                    Stake_Token.transfer(msg.sender,_userdata[i].amount);\r\n                    \r\n                    remove_data(i);\r\n                    user_rtime[msg.sender] = 0;\r\n                    break;\r\n                }\r\n                else if(_userdata[i].id == 4 && _userdata[i].count == _cnt) { //365 days\r\n                    require(block.timestamp >= _userdata[i].duration,\"You can't get reward Now!\");\r\n                    \r\n                    Reward_Token.transfer(msg.sender,calulateReward(_userdata[i].amount,_365Days_Reward));\r\n                    Stake_Token.transfer(msg.sender,_userdata[i].amount);\r\n                    \r\n                    remove_data(i);\r\n                    user_rtime[msg.sender] = 0;\r\n                    break;\r\n                }\r\n            }\r\n        }\r\n    }\r\n\r\n    function check_index() public view returns (uint index){\r\n        for(uint i = 0 ; i < _userdata.length ; i++) {\r\n            if(_userdata[i].person == msg.sender){\r\n                return i;\r\n            }\r\n        }\r\n    }\r\n\r\n    function OpenReward(uint _cnt) public {\r\n\r\n         require(!paused,\"Staking Pool is Paused!!\");\r\n\r\n        for(uint i = 0 ; i < _userdata.length ; i++) {\r\n            \r\n            if(_userdata[i].person == msg.sender){\r\n\r\n               if(_userdata[i].id == 1 && _userdata[i].count == _cnt) { //60 days\r\n                    \r\n                    Stake_Token.transfer(msg.sender,getCancelCal(_userdata[i].amount,deductionPer));\r\n                    \r\n                    remove_data(i);\r\n                    user_rtime[msg.sender] = 0;\r\n                    break;\r\n                }\r\n                else if(_userdata[i].id == 2 && _userdata[i].count == _cnt) { //90 days\r\n                    \r\n                    Stake_Token.transfer(msg.sender,getCancelCal(_userdata[i].amount,deductionPer));\r\n                    \r\n                    remove_data(i);\r\n                    user_rtime[msg.sender] = 0;\r\n                    break;\r\n                }\r\n                else if(_userdata[i].id == 3 && _userdata[i].count == _cnt) { //120 days\r\n                    \r\n                    Stake_Token.transfer(msg.sender,getCancelCal(_userdata[i].amount,deductionPer));\r\n                    \r\n                    remove_data(i);\r\n                    user_rtime[msg.sender] = 0;\r\n                    break;\r\n                }\r\n                else if(_userdata[i].id == 4 && _userdata[i].count == _cnt) { //365 days\r\n                    \r\n                    Stake_Token.transfer(msg.sender,getCancelCal(_userdata[i].amount,deductionPer));\r\n                    \r\n                    remove_data(i);\r\n                    user_rtime[msg.sender] = 0;\r\n                    break;\r\n                }\r\n            }\r\n        }\r\n\r\n    }\r\n\r\n    function getCancelCal(uint _amount, uint _per) internal pure returns (uint) {\r\n        uint num;\r\n        num = (_amount * _per ) / 100;\r\n        uint total = _amount - num;\r\n        return total;\r\n    }\r\n    function calulateReward(uint _amount, uint _per) internal pure returns (uint) {\r\n        uint rew;\r\n        rew = (_amount * _per ) / 100;\r\n        return rew;\r\n    }\r\n\r\n    function remove_data(uint _pid) private {\r\n      //  _userdata[_pid].person = address(0);\r\n      //  _userdata[_pid].duration = 0;\r\n      //  _userdata[_pid].stake_time = 0;\r\n      //  _userdata[_pid].amount = 0;\r\n     //   _userdata[_pid].id = 0;\r\n      //  _userdata[_pid].count = 0;\r\n      for( uint i = _pid; i < _userdata.length -1 ; i++)\r\n      {\r\n        _userdata [_pid] = _userdata[i+1];        \r\n      }\r\n      _userdata.pop();\r\n\r\n\r\n    }\r\n\r\n    function Check_Allowance() public view returns (uint) {\r\n        return Stake_Token.allowance(msg.sender,address(this));\r\n    }\r\n\r\n    function Pool_Balance(uint _pid) public view returns (uint) {\r\n        if(_pid == 1) { return Stake_Token.balanceOf(address(this)); }\r\n        if(_pid == 2) { return Reward_Token.balanceOf(address(this)); }\r\n        if(_pid == 3) { return Reward_Token.balanceOf(address(this)); }\r\n        if(_pid == 4) { return Reward_Token.balanceOf(address(this)); }\r\n\r\n        else { revert(\"Wrong Option!!\"); }\r\n    }\r\n\r\n    function Token_Balance(uint _pid) public view returns (uint) {\r\n        if(_pid == 1) { return Stake_Token.balanceOf(msg.sender); }\r\n        if(_pid == 2) { return Reward_Token.balanceOf(msg.sender); }\r\n        if(_pid == 3) { return Reward_Token.balanceOf(msg.sender); }\r\n        if(_pid == 4) { return Reward_Token.balanceOf(msg.sender); }\r\n\r\n\r\n        else { revert(\"Wrong Option!!\"); }\r\n    }\r\n\r\n    function EmergencyPause() public onlyOwner {\r\n        Stake_Token.transfer(msg.sender,address(this).balance);\r\n        Reward_Token.transfer(msg.sender,address(this).balance);\r\n    }\r\n\r\n    function Pause_Pool(bool _bool) public onlyOwner {\r\n        paused = _bool;\r\n    }\r\n\r\n}",
  "sourcePath": "D:\\Projects\\blockchainProject\\artex\\contracts\\Staking_Pool.sol",
  "compiler": {
    "name": "solc",
    "version": "0.8.14+commit.80d49f37.Emscripten.clang"
  },
  "schemaVersion": "3.4.7",
  "updatedAt": "2022-06-26T16:49:08.304Z",
  "devdoc": {
    "details": "Contract module which provides a basic access control mechanism, where there is an account (an owner) that can be granted exclusive access to specific functions. By default, the owner account will be the one that deploys the contract. This can later be changed with {transferOwnership}. This module is used through inheritance. It will make available the modifier `onlyOwner`, which can be applied to your functions to restrict their use to the owner.",
    "kind": "dev",
    "methods": {
      "constructor": {
        "details": "Initializes the contract setting the deployer as the initial owner."
      },
      "owner()": {
        "details": "Returns the address of the current owner."
      },
      "renounceOwnership()": {
        "details": "Leaves the contract without owner. It will not be possible to call `onlyOwner` functions anymore. Can only be called by the current owner. NOTE: Renouncing ownership will leave the contract without an owner, thereby removing any functionality that is only available to the owner."
      },
      "transferOwnership(address)": {
        "details": "Transfers ownership of the contract to a new account (`newOwner`). Can only be called by the current owner."
      }
    },
    "version": 1
  },
  "userdoc": {
    "kind": "user",
    "methods": {},
    "version": 1
  }
}