{
  "contractName": "Staking_Pool",
  "abi": [
    {
      "anonymous": false,
      "inputs": [
        {
          "indexed": true,
          "internalType": "address",
          "name": "owner",
          "type": "address"
        },
        {
          "indexed": true,
          "internalType": "address",
          "name": "spender",
          "type": "address"
        },
        {
          "indexed": false,
          "internalType": "uint256",
          "name": "value",
          "type": "uint256"
        }
      ],
      "name": "Approval",
      "type": "event"
    },
    {
      "anonymous": false,
      "inputs": [
        {
          "indexed": true,
          "internalType": "address",
          "name": "previousOwner",
          "type": "address"
        },
        {
          "indexed": true,
          "internalType": "address",
          "name": "newOwner",
          "type": "address"
        }
      ],
      "name": "OwnershipTransferred",
      "type": "event"
    },
    {
      "anonymous": false,
      "inputs": [
        {
          "indexed": true,
          "internalType": "address",
          "name": "from",
          "type": "address"
        },
        {
          "indexed": true,
          "internalType": "address",
          "name": "to",
          "type": "address"
        },
        {
          "indexed": false,
          "internalType": "uint256",
          "name": "value",
          "type": "uint256"
        }
      ],
      "name": "Transfer",
      "type": "event"
    },
    {
      "inputs": [],
      "name": "Reward_Token",
      "outputs": [
        {
          "internalType": "contract IBEP20",
          "name": "",
          "type": "address"
        }
      ],
      "stateMutability": "view",
      "type": "function",
      "constant": true
    },
    {
      "inputs": [],
      "name": "Stake_Token",
      "outputs": [
        {
          "internalType": "contract IBEP20",
          "name": "",
          "type": "address"
        }
      ],
      "stateMutability": "view",
      "type": "function",
      "constant": true
    },
    {
      "inputs": [],
      "name": "_120Days_Reward",
      "outputs": [
        {
          "internalType": "uint256",
          "name": "",
          "type": "uint256"
        }
      ],
      "stateMutability": "view",
      "type": "function",
      "constant": true
    },
    {
      "inputs": [],
      "name": "_365Days_Reward",
      "outputs": [
        {
          "internalType": "uint256",
          "name": "",
          "type": "uint256"
        }
      ],
      "stateMutability": "view",
      "type": "function",
      "constant": true
    },
    {
      "inputs": [],
      "name": "_60Days_Reward",
      "outputs": [
        {
          "internalType": "uint256",
          "name": "",
          "type": "uint256"
        }
      ],
      "stateMutability": "view",
      "type": "function",
      "constant": true
    },
    {
      "inputs": [],
      "name": "_90Days_Reward",
      "outputs": [
        {
          "internalType": "uint256",
          "name": "",
          "type": "uint256"
        }
      ],
      "stateMutability": "view",
      "type": "function",
      "constant": true
    },
    {
      "inputs": [
        {
          "internalType": "uint256",
          "name": "",
          "type": "uint256"
        }
      ],
      "name": "_userdata",
      "outputs": [
        {
          "internalType": "address",
          "name": "person",
          "type": "address"
        },
        {
          "internalType": "uint256",
          "name": "duration",
          "type": "uint256"
        },
        {
          "internalType": "uint256",
          "name": "stake_time",
          "type": "uint256"
        },
        {
          "internalType": "uint256",
          "name": "amount",
          "type": "uint256"
        },
        {
          "internalType": "uint256",
          "name": "id",
          "type": "uint256"
        },
        {
          "internalType": "uint256",
          "name": "count",
          "type": "uint256"
        }
      ],
      "stateMutability": "view",
      "type": "function",
      "constant": true
    },
    {
      "inputs": [
        {
          "internalType": "address",
          "name": "owner",
          "type": "address"
        },
        {
          "internalType": "address",
          "name": "spender",
          "type": "address"
        }
      ],
      "name": "allowance",
      "outputs": [
        {
          "internalType": "uint256",
          "name": "",
          "type": "uint256"
        }
      ],
      "stateMutability": "view",
      "type": "function",
      "constant": true
    },
    {
      "inputs": [
        {
          "internalType": "address",
          "name": "spender",
          "type": "address"
        },
        {
          "internalType": "uint256",
          "name": "amount",
          "type": "uint256"
        }
      ],
      "name": "approve",
      "outputs": [
        {
          "internalType": "bool",
          "name": "",
          "type": "bool"
        }
      ],
      "stateMutability": "nonpayable",
      "type": "function"
    },
    {
      "inputs": [
        {
          "internalType": "address",
          "name": "account",
          "type": "address"
        }
      ],
      "name": "balanceOf",
      "outputs": [
        {
          "internalType": "uint256",
          "name": "",
          "type": "uint256"
        }
      ],
      "stateMutability": "view",
      "type": "function",
      "constant": true
    },
    {
      "inputs": [],
      "name": "decimals",
      "outputs": [
        {
          "internalType": "uint8",
          "name": "",
          "type": "uint8"
        }
      ],
      "stateMutability": "view",
      "type": "function",
      "constant": true
    },
    {
      "inputs": [
        {
          "internalType": "address",
          "name": "spender",
          "type": "address"
        },
        {
          "internalType": "uint256",
          "name": "subtractedValue",
          "type": "uint256"
        }
      ],
      "name": "decreaseAllowance",
      "outputs": [
        {
          "internalType": "bool",
          "name": "",
          "type": "bool"
        }
      ],
      "stateMutability": "nonpayable",
      "type": "function"
    },
    {
      "inputs": [],
      "name": "deductionPer",
      "outputs": [
        {
          "internalType": "uint256",
          "name": "",
          "type": "uint256"
        }
      ],
      "stateMutability": "view",
      "type": "function",
      "constant": true
    },
    {
      "inputs": [],
      "name": "getOwner",
      "outputs": [
        {
          "internalType": "address",
          "name": "",
          "type": "address"
        }
      ],
      "stateMutability": "view",
      "type": "function",
      "constant": true
    },
    {
      "inputs": [
        {
          "internalType": "address",
          "name": "spender",
          "type": "address"
        },
        {
          "internalType": "uint256",
          "name": "addedValue",
          "type": "uint256"
        }
      ],
      "name": "increaseAllowance",
      "outputs": [
        {
          "internalType": "bool",
          "name": "",
          "type": "bool"
        }
      ],
      "stateMutability": "nonpayable",
      "type": "function"
    },
    {
      "inputs": [
        {
          "internalType": "uint256",
          "name": "amount",
          "type": "uint256"
        }
      ],
      "name": "mint",
      "outputs": [
        {
          "internalType": "bool",
          "name": "",
          "type": "bool"
        }
      ],
      "stateMutability": "nonpayable",
      "type": "function"
    },
    {
      "inputs": [],
      "name": "name",
      "outputs": [
        {
          "internalType": "string",
          "name": "",
          "type": "string"
        }
      ],
      "stateMutability": "view",
      "type": "function",
      "constant": true
    },
    {
      "inputs": [],
      "name": "owner",
      "outputs": [
        {
          "internalType": "address",
          "name": "",
          "type": "address"
        }
      ],
      "stateMutability": "view",
      "type": "function",
      "constant": true
    },
    {
      "inputs": [],
      "name": "paused",
      "outputs": [
        {
          "internalType": "bool",
          "name": "",
          "type": "bool"
        }
      ],
      "stateMutability": "view",
      "type": "function",
      "constant": true
    },
    {
      "inputs": [],
      "name": "renounceOwnership",
      "outputs": [],
      "stateMutability": "nonpayable",
      "type": "function"
    },
    {
      "inputs": [],
      "name": "symbol",
      "outputs": [
        {
          "internalType": "string",
          "name": "",
          "type": "string"
        }
      ],
      "stateMutability": "view",
      "type": "function",
      "constant": true
    },
    {
      "inputs": [],
      "name": "totalSupply",
      "outputs": [
        {
          "internalType": "uint256",
          "name": "",
          "type": "uint256"
        }
      ],
      "stateMutability": "view",
      "type": "function",
      "constant": true
    },
    {
      "inputs": [
        {
          "internalType": "address",
          "name": "recipient",
          "type": "address"
        },
        {
          "internalType": "uint256",
          "name": "amount",
          "type": "uint256"
        }
      ],
      "name": "transfer",
      "outputs": [
        {
          "internalType": "bool",
          "name": "",
          "type": "bool"
        }
      ],
      "stateMutability": "nonpayable",
      "type": "function"
    },
    {
      "inputs": [
        {
          "internalType": "address",
          "name": "sender",
          "type": "address"
        },
        {
          "internalType": "address",
          "name": "recipient",
          "type": "address"
        },
        {
          "internalType": "uint256",
          "name": "amount",
          "type": "uint256"
        }
      ],
      "name": "transferFrom",
      "outputs": [
        {
          "internalType": "bool",
          "name": "",
          "type": "bool"
        }
      ],
      "stateMutability": "nonpayable",
      "type": "function"
    },
    {
      "inputs": [
        {
          "internalType": "address",
          "name": "newOwner",
          "type": "address"
        }
      ],
      "name": "transferOwnership",
      "outputs": [],
      "stateMutability": "nonpayable",
      "type": "function"
    },
    {
      "inputs": [
        {
          "internalType": "address",
          "name": "",
          "type": "address"
        }
      ],
      "name": "user_rtime",
      "outputs": [
        {
          "internalType": "uint256",
          "name": "",
          "type": "uint256"
        }
      ],
      "stateMutability": "view",
      "type": "function",
      "constant": true
    },
    {
      "inputs": [
        {
          "internalType": "contract IBEP20",
          "name": "_Stake",
          "type": "address"
        },
        {
          "internalType": "contract IBEP20",
          "name": "_Reward",
          "type": "address"
        }
      ],
      "name": "Token_Modifier",
      "outputs": [],
      "stateMutability": "nonpayable",
      "type": "function"
    },
    {
      "inputs": [
        {
          "internalType": "uint256",
          "name": "_60days",
          "type": "uint256"
        },
        {
          "internalType": "uint256",
          "name": "_90days",
          "type": "uint256"
        },
        {
          "internalType": "uint256",
          "name": "_120days",
          "type": "uint256"
        },
        {
          "internalType": "uint256",
          "name": "_365days",
          "type": "uint256"
        }
      ],
      "name": "set_Reward",
      "outputs": [],
      "stateMutability": "nonpayable",
      "type": "function"
    },
    {
      "inputs": [
        {
          "internalType": "uint256",
          "name": "tokenA",
          "type": "uint256"
        },
        {
          "internalType": "uint256",
          "name": "tokenB",
          "type": "uint256"
        }
      ],
      "name": "setDec",
      "outputs": [],
      "stateMutability": "nonpayable",
      "type": "function"
    },
    {
      "inputs": [
        {
          "internalType": "uint256",
          "name": "per",
          "type": "uint256"
        }
      ],
      "name": "setDeductionPer",
      "outputs": [],
      "stateMutability": "nonpayable",
      "type": "function"
    },
    {
      "inputs": [
        {
          "internalType": "uint256",
          "name": "_pid",
          "type": "uint256"
        },
        {
          "internalType": "uint256",
          "name": "_amount",
          "type": "uint256"
        }
      ],
      "name": "Stake",
      "outputs": [],
      "stateMutability": "nonpayable",
      "type": "function"
    },
    {
      "inputs": [],
      "name": "getCount",
      "outputs": [
        {
          "internalType": "uint256",
          "name": "",
          "type": "uint256"
        }
      ],
      "stateMutability": "view",
      "type": "function",
      "constant": true
    },
    {
      "inputs": [
        {
          "internalType": "uint256",
          "name": "_cnt",
          "type": "uint256"
        }
      ],
      "name": "get_Reward",
      "outputs": [],
      "stateMutability": "nonpayable",
      "type": "function"
    },
    {
      "inputs": [],
      "name": "check_index",
      "outputs": [
        {
          "internalType": "uint256",
          "name": "index",
          "type": "uint256"
        }
      ],
      "stateMutability": "view",
      "type": "function",
      "constant": true
    },
    {
      "inputs": [
        {
          "internalType": "uint256",
          "name": "_cnt",
          "type": "uint256"
        }
      ],
      "name": "OpenReward",
      "outputs": [],
      "stateMutability": "nonpayable",
      "type": "function"
    },
    {
      "inputs": [],
      "name": "Check_Allowance",
      "outputs": [
        {
          "internalType": "uint256",
          "name": "",
          "type": "uint256"
        }
      ],
      "stateMutability": "view",
      "type": "function",
      "constant": true
    },
    {
      "inputs": [
        {
          "internalType": "uint256",
          "name": "_pid",
          "type": "uint256"
        }
      ],
      "name": "Pool_Balance",
      "outputs": [
        {
          "internalType": "uint256",
          "name": "",
          "type": "uint256"
        }
      ],
      "stateMutability": "view",
      "type": "function",
      "constant": true
    },
    {
      "inputs": [
        {
          "internalType": "uint256",
          "name": "_pid",
          "type": "uint256"
        }
      ],
      "name": "Token_Balance",
      "outputs": [
        {
          "internalType": "uint256",
          "name": "",
          "type": "uint256"
        }
      ],
      "stateMutability": "view",
      "type": "function",
      "constant": true
    },
    {
      "inputs": [],
      "name": "EmergencyPause",
      "outputs": [],
      "stateMutability": "nonpayable",
      "type": "function"
    },
    {
      "inputs": [
        {
          "internalType": "bool",
          "name": "_bool",
          "type": "bool"
        }
      ],
      "name": "Pause_Pool",
      "outputs": [],
      "stateMutability": "nonpayable",
      "type": "function"
    }
  ],
  "bytecode": "0x60806040526000600760006101000a81548160ff021916908315150217905550670de0b6b3a7640000600855670de0b6b3a76400006009553480156200004457600080fd5b506200006562000059620001e560201b60201c565b620001ed60201b60201c565b6040518060400160405280600b81526020017f417274657820546f6b656e00000000000000000000000000000000000000000081525060069080519060200190620000b29291906200031c565b506040518060400160405280600581526020017f415254455800000000000000000000000000000000000000000000000000000081525060059080519060200190620001009291906200031c565b506012600460006101000a81548160ff021916908360ff1602179055506a52b7d2dcc80cd2e4000000600381905550600354600160003373ffffffffffffffffffffffffffffffffffffffff1673ffffffffffffffffffffffffffffffffffffffff168152602001908152602001600020819055503373ffffffffffffffffffffffffffffffffffffffff16600073ffffffffffffffffffffffffffffffffffffffff167fddf252ad1be2c89b69c2b068fc378daa952ba7f163c4a11628f55a4df523b3ef600354604051620001d79190620003e7565b60405180910390a362000511565b600033905090565b600073ffffffffffffffffffffffffffffffffffffffff168173ffffffffffffffffffffffffffffffffffffffff16036200025f576040517f08c379a000000000000000000000000000000000000000000000000000000000815260040162000256906200048b565b60405180910390fd5b8073ffffffffffffffffffffffffffffffffffffffff1660008054906101000a900473ffffffffffffffffffffffffffffffffffffffff1673ffffffffffffffffffffffffffffffffffffffff167f8be0079c531659141344cd1fd0a4f28419497f9722a3daafe3b4186f6b6457e060405160405180910390a3806000806101000a81548173ffffffffffffffffffffffffffffffffffffffff021916908373ffffffffffffffffffffffffffffffffffffffff16021790555050565b8280546200032a90620004dc565b90600052602060002090601f0160209004810192826200034e57600085556200039a565b82601f106200036957805160ff19168380011785556200039a565b828001600101855582156200039a579182015b82811115620003995782518255916020019190600101906200037c565b5b509050620003a99190620003ad565b5090565b5b80821115620003c8576000816000905550600101620003ae565b5090565b6000819050919050565b620003e181620003cc565b82525050565b6000602082019050620003fe6000830184620003d6565b92915050565b600082825260208201905092915050565b7f4f776e61626c653a206e6577206f776e657220697320746865207a65726f206160008201527f6464726573730000000000000000000000000000000000000000000000000000602082015250565b60006200047360268362000404565b9150620004808262000415565b604082019050919050565b60006020820190508181036000830152620004a68162000464565b9050919050565b7f4e487b7100000000000000000000000000000000000000000000000000000000600052602260045260246000fd5b60006002820490506001821680620004f557607f821691505b6020821081036200050b576200050a620004ad565b5b50919050565b61507380620005216000396000f3fe608060405234801561001057600080fd5b50600436106102485760003560e01c80638da5cb5b1161013b578063c5417f29116100b8578063dff96c0b1161007c578063dff96c0b146106fa578063e21278771461072a578063e2fc741514610748578063f2fde38b14610766578063f3f4ea351461078257610248565b8063c5417f2914610656578063c9ec05ea14610674578063d1f00e4614610690578063d4190595146106ae578063dd62ed3e146106ca57610248565b8063a457c2d7116100ff578063a457c2d71461059e578063a87d942c146105ce578063a9059cbb146105ec578063a93f1bd61461061c578063ba27a75e1461063a57610248565b80638da5cb5b146104fa57806395d89b4114610518578063a0712d6814610536578063a2a16cf514610566578063a34744481461058257610248565b8063434fc754116101c95780635c975abb1161018d5780635c975abb1461045457806370a0823114610472578063715018a6146104a2578063836a3cca146104ac578063893d20e8146104dc57610248565b8063434fc75414610397578063446e67d7146103b55780634daf1d83146103d1578063528c1a0c146103ef578063592c0df61461041f57610248565b806323b872dd1161021057806323b872dd146102f3578063313ce56714610323578063325011df14610341578063395093511461035d5780633e57324e1461038d57610248565b806306fdde031461024d578063095ea7b31461026b5780630ef051121461029b57806311d79a8b146102b957806318160ddd146102d5575b600080fd5b6102556107a0565b604051610262919061408a565b60405180910390f35b61028560048036038101906102809190614145565b610832565b60405161029291906141a0565b60405180910390f35b6102a3610850565b6040516102b091906141ca565b60405180910390f35b6102d360048036038101906102ce91906141e5565b610856565b005b6102dd6108f5565b6040516102ea91906141ca565b60405180910390f35b61030d60048036038101906103089190614212565b6108ff565b60405161031a91906141a0565b60405180910390f35b61032b610922565b6040516103389190614281565b60405180910390f35b61035b6004803603810190610356919061429c565b610939565b005b61037760048036038101906103729190614145565b610a24565b60405161038491906141a0565b60405180910390f35b610395610ad7565b005b61039f610cb0565b6040516103ac9190614362565b60405180910390f35b6103cf60048036038101906103ca919061437d565b610cd6565b005b6103d9610dad565b6040516103e691906141ca565b60405180910390f35b610409600480360381019061040491906141e5565b610e5b565b60405161041691906141ca565b60405180910390f35b610439600480360381019061043491906141e5565b611149565b60405161044b969594939291906143cc565b60405180910390f35b61045c6111b5565b60405161046991906141a0565b60405180910390f35b61048c6004803603810190610487919061442d565b6111c8565b60405161049991906141ca565b60405180910390f35b6104aa611211565b005b6104c660048036038101906104c191906141e5565b611364565b6040516104d391906141ca565b60405180910390f35b6104e4611652565b6040516104f1919061445a565b60405180910390f35b610502611661565b60405161050f919061445a565b60405180910390f35b61052061168a565b60405161052d919061408a565b60405180910390f35b610550600480360381019061054b91906141e5565b61171c565b60405161055d91906141a0565b60405180910390f35b610580600480360381019061057b91906144b3565b6117cd565b005b61059c600480360381019061059791906141e5565b6118e8565b005b6105b860048036038101906105b39190614145565b612498565b6040516105c591906141a0565b60405180910390f35b6105d6612565565b6040516105e391906141ca565b60405180910390f35b61060660048036038101906106019190614145565b612572565b60405161061391906141a0565b60405180910390f35b610624612590565b60405161063191906141ca565b60405180910390f35b610654600480360381019061064f919061451f565b612596565b005b61065e612648565b60405161066b91906141ca565b60405180910390f35b61068e6004803603810190610689919061437d565b61264e565b005b610698612d13565b6040516106a591906141ca565b60405180910390f35b6106c860048036038101906106c391906141e5565b612db8565b005b6106e460048036038101906106df919061454c565b6134b0565b6040516106f191906141ca565b60405180910390f35b610714600480360381019061070f919061442d565b613537565b60405161072191906141ca565b60405180910390f35b61073261354f565b60405161073f91906141ca565b60405180910390f35b610750613555565b60405161075d91906141ca565b60405180910390f35b610780600480360381019061077b919061442d565b61355b565b005b61078a6135fc565b6040516107979190614362565b60405180910390f35b6060600680546107af906145bb565b80601f01602080910402602001604051908101604052809291908181526020018280546107db906145bb565b80156108285780601f106107fd57610100808354040283529160200191610828565b820191906000526020600020905b81548152906001019060200180831161080b57829003601f168201915b5050505050905090565b600061084661083f613622565b848461362a565b6001905092915050565b600a5481565b61085e613622565b73ffffffffffffffffffffffffffffffffffffffff1660008054906101000a900473ffffffffffffffffffffffffffffffffffffffff1673ffffffffffffffffffffffffffffffffffffffff16146108eb576040517f08c379a00000000000000000000000000000000000000000000000000000000081526004016108e290614638565b60405180910390fd5b80600e8190555050565b6000600354905090565b600061090c8484846137f3565b61091784848461362a565b600190509392505050565b6000600460009054906101000a900460ff16905090565b610941613622565b73ffffffffffffffffffffffffffffffffffffffff1660008054906101000a900473ffffffffffffffffffffffffffffffffffffffff1673ffffffffffffffffffffffffffffffffffffffff16146109ce576040517f08c379a00000000000000000000000000000000000000000000000000000000081526004016109c590614638565b60405180910390fd5b600954846109dc9190614687565b600a81905550600954836109f09190614687565b600b8190555060095482610a049190614687565b600c8190555060095481610a189190614687565b600d8190555050505050565b6000610acd610a31613622565b84610ac88560026000610a42613622565b73ffffffffffffffffffffffffffffffffffffffff1673ffffffffffffffffffffffffffffffffffffffff16815260200190815260200160002060008973ffffffffffffffffffffffffffffffffffffffff1673ffffffffffffffffffffffffffffffffffffffff16815260200190815260200160002054613a7f90919063ffffffff16565b61362a565b6001905092915050565b610adf613622565b73ffffffffffffffffffffffffffffffffffffffff1660008054906101000a900473ffffffffffffffffffffffffffffffffffffffff1673ffffffffffffffffffffffffffffffffffffffff1614610b6c576040517f08c379a0000000000000000000000000000000000000000000000000000000008152600401610b6390614638565b60405180910390fd5b601260009054906101000a900473ffffffffffffffffffffffffffffffffffffffff1673ffffffffffffffffffffffffffffffffffffffff1663a9059cbb33476040518363ffffffff1660e01b8152600401610bc99291906146e1565b6020604051808303816000875af1158015610be8573d6000803e3d6000fd5b505050506040513d601f19601f82011682018060405250810190610c0c919061471f565b50601360009054906101000a900473ffffffffffffffffffffffffffffffffffffffff1673ffffffffffffffffffffffffffffffffffffffff1663a9059cbb33476040518363ffffffff1660e01b8152600401610c6a9291906146e1565b6020604051808303816000875af1158015610c89573d6000803e3d6000fd5b505050506040513d601f19601f82011682018060405250810190610cad919061471f565b50565b601360009054906101000a900473ffffffffffffffffffffffffffffffffffffffff1681565b610cde613622565b73ffffffffffffffffffffffffffffffffffffffff1660008054906101000a900473ffffffffffffffffffffffffffffffffffffffff1673ffffffffffffffffffffffffffffffffffffffff1614610d6b576040517f08c379a0000000000000000000000000000000000000000000000000000000008152600401610d6290614638565b60405180910390fd5b81600a610d78919061487f565b6001610d849190614687565b60088190555080600a610d97919061487f565b6001610da39190614687565b6009819055505050565b600080600090505b600f80549050811015610e56573373ffffffffffffffffffffffffffffffffffffffff16600f8281548110610ded57610dec6148ca565b5b906000526020600020906006020160000160009054906101000a900473ffffffffffffffffffffffffffffffffffffffff1673ffffffffffffffffffffffffffffffffffffffff1603610e435780915050610e58565b8080610e4e906148f9565b915050610db5565b505b90565b600060018203610f0857601260009054906101000a900473ffffffffffffffffffffffffffffffffffffffff1673ffffffffffffffffffffffffffffffffffffffff166370a08231306040518263ffffffff1660e01b8152600401610ec0919061445a565b602060405180830381865afa158015610edd573d6000803e3d6000fd5b505050506040513d601f19601f82011682018060405250810190610f019190614956565b9050611144565b60028203610fb357601360009054906101000a900473ffffffffffffffffffffffffffffffffffffffff1673ffffffffffffffffffffffffffffffffffffffff166370a08231306040518263ffffffff1660e01b8152600401610f6b919061445a565b602060405180830381865afa158015610f88573d6000803e3d6000fd5b505050506040513d601f19601f82011682018060405250810190610fac9190614956565b9050611144565b6003820361105e57601360009054906101000a900473ffffffffffffffffffffffffffffffffffffffff1673ffffffffffffffffffffffffffffffffffffffff166370a08231306040518263ffffffff1660e01b8152600401611016919061445a565b602060405180830381865afa158015611033573d6000803e3d6000fd5b505050506040513d601f19601f820116820180604052508101906110579190614956565b9050611144565b6004820361110957601360009054906101000a900473ffffffffffffffffffffffffffffffffffffffff1673ffffffffffffffffffffffffffffffffffffffff166370a08231306040518263ffffffff1660e01b81526004016110c1919061445a565b602060405180830381865afa1580156110de573d6000803e3d6000fd5b505050506040513d601f19601f820116820180604052508101906111029190614956565b9050611144565b6040517f08c379a000000000000000000000000000000000000000000000000000000000815260040161113b906149cf565b60405180910390fd5b919050565b600f818154811061115957600080fd5b90600052602060002090600602016000915090508060000160009054906101000a900473ffffffffffffffffffffffffffffffffffffffff16908060010154908060020154908060030154908060040154908060050154905086565b600760009054906101000a900460ff1681565b6000600160008373ffffffffffffffffffffffffffffffffffffffff1673ffffffffffffffffffffffffffffffffffffffff168152602001908152602001600020549050919050565b611219613622565b73ffffffffffffffffffffffffffffffffffffffff1660008054906101000a900473ffffffffffffffffffffffffffffffffffffffff1673ffffffffffffffffffffffffffffffffffffffff16146112a6576040517f08c379a000000000000000000000000000000000000000000000000000000000815260040161129d90614638565b60405180910390fd5b600073ffffffffffffffffffffffffffffffffffffffff1660008054906101000a900473ffffffffffffffffffffffffffffffffffffffff1673ffffffffffffffffffffffffffffffffffffffff167f8be0079c531659141344cd1fd0a4f28419497f9722a3daafe3b4186f6b6457e060405160405180910390a360008060006101000a81548173ffffffffffffffffffffffffffffffffffffffff021916908373ffffffffffffffffffffffffffffffffffffffff160217905550565b60006001820361141157601260009054906101000a900473ffffffffffffffffffffffffffffffffffffffff1673ffffffffffffffffffffffffffffffffffffffff166370a08231336040518263ffffffff1660e01b81526004016113c9919061445a565b602060405180830381865afa1580156113e6573d6000803e3d6000fd5b505050506040513d601f19601f8201168201806040525081019061140a9190614956565b905061164d565b600282036114bc57601360009054906101000a900473ffffffffffffffffffffffffffffffffffffffff1673ffffffffffffffffffffffffffffffffffffffff166370a08231336040518263ffffffff1660e01b8152600401611474919061445a565b602060405180830381865afa158015611491573d6000803e3d6000fd5b505050506040513d601f19601f820116820180604052508101906114b59190614956565b905061164d565b6003820361156757601360009054906101000a900473ffffffffffffffffffffffffffffffffffffffff1673ffffffffffffffffffffffffffffffffffffffff166370a08231336040518263ffffffff1660e01b815260040161151f919061445a565b602060405180830381865afa15801561153c573d6000803e3d6000fd5b505050506040513d601f19601f820116820180604052508101906115609190614956565b905061164d565b6004820361161257601360009054906101000a900473ffffffffffffffffffffffffffffffffffffffff1673ffffffffffffffffffffffffffffffffffffffff166370a08231336040518263ffffffff1660e01b81526004016115ca919061445a565b602060405180830381865afa1580156115e7573d6000803e3d6000fd5b505050506040513d601f19601f8201168201806040525081019061160b9190614956565b905061164d565b6040517f08c379a0000000000000000000000000000000000000000000000000000000008152600401611644906149cf565b60405180910390fd5b919050565b600061165c611661565b905090565b60008060009054906101000a900473ffffffffffffffffffffffffffffffffffffffff16905090565b606060058054611699906145bb565b80601f01602080910402602001604051908101604052809291908181526020018280546116c5906145bb565b80156117125780601f106116e757610100808354040283529160200191611712565b820191906000526020600020905b8154815290600101906020018083116116f557829003601f168201915b5050505050905090565b6000611726613622565b73ffffffffffffffffffffffffffffffffffffffff1660008054906101000a900473ffffffffffffffffffffffffffffffffffffffff1673ffffffffffffffffffffffffffffffffffffffff16146117b3576040517f08c379a00000000000000000000000000000000000000000000000000000000081526004016117aa90614638565b60405180910390fd5b6117c46117be613622565b83613add565b60019050919050565b6117d5613622565b73ffffffffffffffffffffffffffffffffffffffff1660008054906101000a900473ffffffffffffffffffffffffffffffffffffffff1673ffffffffffffffffffffffffffffffffffffffff1614611862576040517f08c379a000000000000000000000000000000000000000000000000000000000815260040161185990614638565b60405180910390fd5b81601260006101000a81548173ffffffffffffffffffffffffffffffffffffffff021916908373ffffffffffffffffffffffffffffffffffffffff16021790555080601360006101000a81548173ffffffffffffffffffffffffffffffffffffffff021916908373ffffffffffffffffffffffffffffffffffffffff1602179055505050565b600760009054906101000a900460ff1615611938576040517f08c379a000000000000000000000000000000000000000000000000000000000815260040161192f90614a3b565b60405180910390fd5b60005b600f80549050811015612494573373ffffffffffffffffffffffffffffffffffffffff16600f8281548110611973576119726148ca565b5b906000526020600020906006020160000160009054906101000a900473ffffffffffffffffffffffffffffffffffffffff1673ffffffffffffffffffffffffffffffffffffffff1603612481576001600f82815481106119d6576119d56148ca565b5b906000526020600020906006020160040154148015611a19575081600f8281548110611a0557611a046148ca565b5b906000526020600020906006020160050154145b15611c7057600f8181548110611a3257611a316148ca565b5b906000526020600020906006020160010154421015611a86576040517f08c379a0000000000000000000000000000000000000000000000000000000008152600401611a7d90614aa7565b60405180910390fd5b601360009054906101000a900473ffffffffffffffffffffffffffffffffffffffff1673ffffffffffffffffffffffffffffffffffffffff1663a9059cbb33611af6600f8581548110611adc57611adb6148ca565b5b906000526020600020906006020160030154600a54613c66565b6040518363ffffffff1660e01b8152600401611b139291906146e1565b6020604051808303816000875af1158015611b32573d6000803e3d6000fd5b505050506040513d601f19601f82011682018060405250810190611b56919061471f565b50601260009054906101000a900473ffffffffffffffffffffffffffffffffffffffff1673ffffffffffffffffffffffffffffffffffffffff1663a9059cbb33600f8481548110611baa57611ba96148ca565b5b9060005260206000209060060201600301546040518363ffffffff1660e01b8152600401611bd99291906146e1565b6020604051808303816000875af1158015611bf8573d6000803e3d6000fd5b505050506040513d601f19601f82011682018060405250810190611c1c919061471f565b50611c2681613c8d565b6000601160003373ffffffffffffffffffffffffffffffffffffffff1673ffffffffffffffffffffffffffffffffffffffff16815260200190815260200160002081905550612494565b6002600f8281548110611c8657611c856148ca565b5b906000526020600020906006020160040154148015611cc9575081600f8281548110611cb557611cb46148ca565b5b906000526020600020906006020160050154145b15611f2057600f8181548110611ce257611ce16148ca565b5b906000526020600020906006020160010154421015611d36576040517f08c379a0000000000000000000000000000000000000000000000000000000008152600401611d2d90614aa7565b60405180910390fd5b601360009054906101000a900473ffffffffffffffffffffffffffffffffffffffff1673ffffffffffffffffffffffffffffffffffffffff1663a9059cbb33611da6600f8581548110611d8c57611d8b6148ca565b5b906000526020600020906006020160030154600b54613c66565b6040518363ffffffff1660e01b8152600401611dc39291906146e1565b6020604051808303816000875af1158015611de2573d6000803e3d6000fd5b505050506040513d601f19601f82011682018060405250810190611e06919061471f565b50601260009054906101000a900473ffffffffffffffffffffffffffffffffffffffff1673ffffffffffffffffffffffffffffffffffffffff1663a9059cbb33600f8481548110611e5a57611e596148ca565b5b9060005260206000209060060201600301546040518363ffffffff1660e01b8152600401611e899291906146e1565b6020604051808303816000875af1158015611ea8573d6000803e3d6000fd5b505050506040513d601f19601f82011682018060405250810190611ecc919061471f565b50611ed681613c8d565b6000601160003373ffffffffffffffffffffffffffffffffffffffff1673ffffffffffffffffffffffffffffffffffffffff16815260200190815260200160002081905550612494565b6003600f8281548110611f3657611f356148ca565b5b906000526020600020906006020160040154148015611f79575081600f8281548110611f6557611f646148ca565b5b906000526020600020906006020160050154145b156121d057600f8181548110611f9257611f916148ca565b5b906000526020600020906006020160010154421015611fe6576040517f08c379a0000000000000000000000000000000000000000000000000000000008152600401611fdd90614aa7565b60405180910390fd5b601360009054906101000a900473ffffffffffffffffffffffffffffffffffffffff1673ffffffffffffffffffffffffffffffffffffffff1663a9059cbb33612056600f858154811061203c5761203b6148ca565b5b906000526020600020906006020160030154600c54613c66565b6040518363ffffffff1660e01b81526004016120739291906146e1565b6020604051808303816000875af1158015612092573d6000803e3d6000fd5b505050506040513d601f19601f820116820180604052508101906120b6919061471f565b50601260009054906101000a900473ffffffffffffffffffffffffffffffffffffffff1673ffffffffffffffffffffffffffffffffffffffff1663a9059cbb33600f848154811061210a576121096148ca565b5b9060005260206000209060060201600301546040518363ffffffff1660e01b81526004016121399291906146e1565b6020604051808303816000875af1158015612158573d6000803e3d6000fd5b505050506040513d601f19601f8201168201806040525081019061217c919061471f565b5061218681613c8d565b6000601160003373ffffffffffffffffffffffffffffffffffffffff1673ffffffffffffffffffffffffffffffffffffffff16815260200190815260200160002081905550612494565b6004600f82815481106121e6576121e56148ca565b5b906000526020600020906006020160040154148015612229575081600f8281548110612215576122146148ca565b5b906000526020600020906006020160050154145b1561248057600f8181548110612242576122416148ca565b5b906000526020600020906006020160010154421015612296576040517f08c379a000000000000000000000000000000000000000000000000000000000815260040161228d90614aa7565b60405180910390fd5b601360009054906101000a900473ffffffffffffffffffffffffffffffffffffffff1673ffffffffffffffffffffffffffffffffffffffff1663a9059cbb33612306600f85815481106122ec576122eb6148ca565b5b906000526020600020906006020160030154600d54613c66565b6040518363ffffffff1660e01b81526004016123239291906146e1565b6020604051808303816000875af1158015612342573d6000803e3d6000fd5b505050506040513d601f19601f82011682018060405250810190612366919061471f565b50601260009054906101000a900473ffffffffffffffffffffffffffffffffffffffff1673ffffffffffffffffffffffffffffffffffffffff1663a9059cbb33600f84815481106123ba576123b96148ca565b5b9060005260206000209060060201600301546040518363ffffffff1660e01b81526004016123e99291906146e1565b6020604051808303816000875af1158015612408573d6000803e3d6000fd5b505050506040513d601f19601f8201168201806040525081019061242c919061471f565b5061243681613c8d565b6000601160003373ffffffffffffffffffffffffffffffffffffffff1673ffffffffffffffffffffffffffffffffffffffff16815260200190815260200160002081905550612494565b5b808061248c906148f9565b91505061193b565b5050565b600061255b6124a5613622565b846125568560405180606001604052806025815260200161501960259139600260006124cf613622565b73ffffffffffffffffffffffffffffffffffffffff1673ffffffffffffffffffffffffffffffffffffffff16815260200190815260200160002060008a73ffffffffffffffffffffffffffffffffffffffff1673ffffffffffffffffffffffffffffffffffffffff16815260200190815260200160002054613e299092919063ffffffff16565b61362a565b6001905092915050565b6000600f80549050905090565b600061258661257f613622565b84846137f3565b6001905092915050565b600e5481565b61259e613622565b73ffffffffffffffffffffffffffffffffffffffff1660008054906101000a900473ffffffffffffffffffffffffffffffffffffffff1673ffffffffffffffffffffffffffffffffffffffff161461262b576040517f08c379a000000000000000000000000000000000000000000000000000000000815260040161262290614638565b60405180910390fd5b80600760006101000a81548160ff02191690831515021790555050565b600d5481565b6000339050600760009054906101000a900460ff16156126a3576040517f08c379a000000000000000000000000000000000000000000000000000000000815260040161269a90614a3b565b60405180910390fd5b600854826126b19190614687565b9150601260009054906101000a900473ffffffffffffffffffffffffffffffffffffffff1673ffffffffffffffffffffffffffffffffffffffff166323b872dd3330856040518463ffffffff1660e01b815260040161271293929190614ac7565b6020604051808303816000875af1158015612731573d6000803e3d6000fd5b505050506040513d601f19601f82011682018060405250810190612755919061471f565b50600183036128c4576000624f1a004261276f9190614afe565b905080601160008473ffffffffffffffffffffffffffffffffffffffff1673ffffffffffffffffffffffffffffffffffffffff1681526020019081526020016000208190555060006040518060c001604052808473ffffffffffffffffffffffffffffffffffffffff1681526020018381526020014281526020018581526020018681526020016010548152509050600f81908060018154018082558091505060019003906000526020600020906006020160009091909190915060008201518160000160006101000a81548173ffffffffffffffffffffffffffffffffffffffff021916908373ffffffffffffffffffffffffffffffffffffffff1602179055506020820151816001015560408201518160020155606082015181600301556080820151816004015560a082015181600501555050601060008154809291906128b8906148f9565b91905055505050612d0e565b60028303612a325760006276a700426128dd9190614afe565b905080601160008473ffffffffffffffffffffffffffffffffffffffff1673ffffffffffffffffffffffffffffffffffffffff1681526020019081526020016000208190555060006040518060c001604052808473ffffffffffffffffffffffffffffffffffffffff1681526020018381526020014281526020018581526020018681526020016010548152509050600f81908060018154018082558091505060019003906000526020600020906006020160009091909190915060008201518160000160006101000a81548173ffffffffffffffffffffffffffffffffffffffff021916908373ffffffffffffffffffffffffffffffffffffffff1602179055506020820151816001015560408201518160020155606082015181600301556080820151816004015560a08201518160050155505060106000815480929190612a26906148f9565b91905055505050612d0d565b60038303612ba0576000629e340042612a4b9190614afe565b905080601160008473ffffffffffffffffffffffffffffffffffffffff1673ffffffffffffffffffffffffffffffffffffffff1681526020019081526020016000208190555060006040518060c001604052808473ffffffffffffffffffffffffffffffffffffffff1681526020018381526020014281526020018581526020018681526020016010548152509050600f81908060018154018082558091505060019003906000526020600020906006020160009091909190915060008201518160000160006101000a81548173ffffffffffffffffffffffffffffffffffffffff021916908373ffffffffffffffffffffffffffffffffffffffff1602179055506020820151816001015560408201518160020155606082015181600301556080820151816004015560a08201518160050155505060106000815480929190612b94906148f9565b91905055505050612d0c565b60048303612d0b5760006301e1338042612bba9190614afe565b905080601160008473ffffffffffffffffffffffffffffffffffffffff1673ffffffffffffffffffffffffffffffffffffffff1681526020019081526020016000208190555060006040518060c001604052808473ffffffffffffffffffffffffffffffffffffffff1681526020018381526020014281526020018581526020018681526020016010548152509050600f81908060018154018082558091505060019003906000526020600020906006020160009091909190915060008201518160000160006101000a81548173ffffffffffffffffffffffffffffffffffffffff021916908373ffffffffffffffffffffffffffffffffffffffff1602179055506020820151816001015560408201518160020155606082015181600301556080820151816004015560a08201518160050155505060106000815480929190612d03906148f9565b919050555050505b5b5b5b505050565b6000601260009054906101000a900473ffffffffffffffffffffffffffffffffffffffff1673ffffffffffffffffffffffffffffffffffffffff1663dd62ed3e33306040518363ffffffff1660e01b8152600401612d72929190614b54565b602060405180830381865afa158015612d8f573d6000803e3d6000fd5b505050506040513d601f19601f82011682018060405250810190612db39190614956565b905090565b600760009054906101000a900460ff1615612e08576040517f08c379a0000000000000000000000000000000000000000000000000000000008152600401612dff90614a3b565b60405180910390fd5b60005b600f805490508110156134ac573373ffffffffffffffffffffffffffffffffffffffff16600f8281548110612e4357612e426148ca565b5b906000526020600020906006020160000160009054906101000a900473ffffffffffffffffffffffffffffffffffffffff1673ffffffffffffffffffffffffffffffffffffffff1603613499576001600f8281548110612ea657612ea56148ca565b5b906000526020600020906006020160040154148015612ee9575081600f8281548110612ed557612ed46148ca565b5b906000526020600020906006020160050154145b1561301257601260009054906101000a900473ffffffffffffffffffffffffffffffffffffffff1673ffffffffffffffffffffffffffffffffffffffff1663a9059cbb33612f5e600f8581548110612f4457612f436148ca565b5b906000526020600020906006020160030154600e54613e8d565b6040518363ffffffff1660e01b8152600401612f7b9291906146e1565b6020604051808303816000875af1158015612f9a573d6000803e3d6000fd5b505050506040513d601f19601f82011682018060405250810190612fbe919061471f565b50612fc881613c8d565b6000601160003373ffffffffffffffffffffffffffffffffffffffff1673ffffffffffffffffffffffffffffffffffffffff168152602001908152602001600020819055506134ac565b6002600f8281548110613028576130276148ca565b5b90600052602060002090600602016004015414801561306b575081600f8281548110613057576130566148ca565b5b906000526020600020906006020160050154145b1561319457601260009054906101000a900473ffffffffffffffffffffffffffffffffffffffff1673ffffffffffffffffffffffffffffffffffffffff1663a9059cbb336130e0600f85815481106130c6576130c56148ca565b5b906000526020600020906006020160030154600e54613e8d565b6040518363ffffffff1660e01b81526004016130fd9291906146e1565b6020604051808303816000875af115801561311c573d6000803e3d6000fd5b505050506040513d601f19601f82011682018060405250810190613140919061471f565b5061314a81613c8d565b6000601160003373ffffffffffffffffffffffffffffffffffffffff1673ffffffffffffffffffffffffffffffffffffffff168152602001908152602001600020819055506134ac565b6003600f82815481106131aa576131a96148ca565b5b9060005260206000209060060201600401541480156131ed575081600f82815481106131d9576131d86148ca565b5b906000526020600020906006020160050154145b1561331657601260009054906101000a900473ffffffffffffffffffffffffffffffffffffffff1673ffffffffffffffffffffffffffffffffffffffff1663a9059cbb33613262600f8581548110613248576132476148ca565b5b906000526020600020906006020160030154600e54613e8d565b6040518363ffffffff1660e01b815260040161327f9291906146e1565b6020604051808303816000875af115801561329e573d6000803e3d6000fd5b505050506040513d601f19601f820116820180604052508101906132c2919061471f565b506132cc81613c8d565b6000601160003373ffffffffffffffffffffffffffffffffffffffff1673ffffffffffffffffffffffffffffffffffffffff168152602001908152602001600020819055506134ac565b6004600f828154811061332c5761332b6148ca565b5b90600052602060002090600602016004015414801561336f575081600f828154811061335b5761335a6148ca565b5b906000526020600020906006020160050154145b1561349857601260009054906101000a900473ffffffffffffffffffffffffffffffffffffffff1673ffffffffffffffffffffffffffffffffffffffff1663a9059cbb336133e4600f85815481106133ca576133c96148ca565b5b906000526020600020906006020160030154600e54613e8d565b6040518363ffffffff1660e01b81526004016134019291906146e1565b6020604051808303816000875af1158015613420573d6000803e3d6000fd5b505050506040513d601f19601f82011682018060405250810190613444919061471f565b5061344e81613c8d565b6000601160003373ffffffffffffffffffffffffffffffffffffffff1673ffffffffffffffffffffffffffffffffffffffff168152602001908152602001600020819055506134ac565b5b80806134a4906148f9565b915050612e0b565b5050565b6000600260008473ffffffffffffffffffffffffffffffffffffffff1673ffffffffffffffffffffffffffffffffffffffff16815260200190815260200160002060008373ffffffffffffffffffffffffffffffffffffffff1673ffffffffffffffffffffffffffffffffffffffff16815260200190815260200160002054905092915050565b60116020528060005260406000206000915090505481565b600b5481565b600c5481565b613563613622565b73ffffffffffffffffffffffffffffffffffffffff1660008054906101000a900473ffffffffffffffffffffffffffffffffffffffff1673ffffffffffffffffffffffffffffffffffffffff16146135f0576040517f08c379a00000000000000000000000000000000000000000000000000000000081526004016135e790614638565b60405180910390fd5b6135f981613ec5565b50565b601260009054906101000a900473ffffffffffffffffffffffffffffffffffffffff1681565b600033905090565b600073ffffffffffffffffffffffffffffffffffffffff168373ffffffffffffffffffffffffffffffffffffffff1603613699576040517f08c379a000000000000000000000000000000000000000000000000000000000815260040161369090614bef565b60405180910390fd5b600073ffffffffffffffffffffffffffffffffffffffff168273ffffffffffffffffffffffffffffffffffffffff1603613708576040517f08c379a00000000000000000000000000000000000000000000000000000000081526004016136ff90614c81565b60405180910390fd5b80600260008573ffffffffffffffffffffffffffffffffffffffff1673ffffffffffffffffffffffffffffffffffffffff16815260200190815260200160002060008473ffffffffffffffffffffffffffffffffffffffff1673ffffffffffffffffffffffffffffffffffffffff168152602001908152602001600020819055508173ffffffffffffffffffffffffffffffffffffffff168373ffffffffffffffffffffffffffffffffffffffff167f8c5be1e5ebec7d5bd14f71427d1e84f3dd0314c0f7b2291e5b200ac8c7c3b925836040516137e691906141ca565b60405180910390a3505050565b600073ffffffffffffffffffffffffffffffffffffffff168373ffffffffffffffffffffffffffffffffffffffff1603613862576040517f08c379a000000000000000000000000000000000000000000000000000000000815260040161385990614d13565b60405180910390fd5b600073ffffffffffffffffffffffffffffffffffffffff168273ffffffffffffffffffffffffffffffffffffffff16036138d1576040517f08c379a00000000000000000000000000000000000000000000000000000000081526004016138c890614da5565b60405180910390fd5b61393d81604051806060016040528060268152602001614ff360269139600160008773ffffffffffffffffffffffffffffffffffffffff1673ffffffffffffffffffffffffffffffffffffffff16815260200190815260200160002054613e299092919063ffffffff16565b600160008573ffffffffffffffffffffffffffffffffffffffff1673ffffffffffffffffffffffffffffffffffffffff168152602001908152602001600020819055506139d281600160008573ffffffffffffffffffffffffffffffffffffffff1673ffffffffffffffffffffffffffffffffffffffff16815260200190815260200160002054613a7f90919063ffffffff16565b600160008473ffffffffffffffffffffffffffffffffffffffff1673ffffffffffffffffffffffffffffffffffffffff168152602001908152602001600020819055508173ffffffffffffffffffffffffffffffffffffffff168373ffffffffffffffffffffffffffffffffffffffff167fddf252ad1be2c89b69c2b068fc378daa952ba7f163c4a11628f55a4df523b3ef83604051613a7291906141ca565b60405180910390a3505050565b6000808284613a8e9190614afe565b905083811015613ad3576040517f08c379a0000000000000000000000000000000000000000000000000000000008152600401613aca90614e11565b60405180910390fd5b8091505092915050565b600073ffffffffffffffffffffffffffffffffffffffff168273ffffffffffffffffffffffffffffffffffffffff1603613b4c576040517f08c379a0000000000000000000000000000000000000000000000000000000008152600401613b4390614e7d565b60405180910390fd5b613b6181600354613a7f90919063ffffffff16565b600381905550613bb981600160008573ffffffffffffffffffffffffffffffffffffffff1673ffffffffffffffffffffffffffffffffffffffff16815260200190815260200160002054613a7f90919063ffffffff16565b600160008473ffffffffffffffffffffffffffffffffffffffff1673ffffffffffffffffffffffffffffffffffffffff168152602001908152602001600020819055508173ffffffffffffffffffffffffffffffffffffffff16600073ffffffffffffffffffffffffffffffffffffffff167fddf252ad1be2c89b69c2b068fc378daa952ba7f163c4a11628f55a4df523b3ef83604051613c5a91906141ca565b60405180910390a35050565b60008060648385613c779190614687565b613c819190614ecc565b90508091505092915050565b60008190505b6001600f80549050613ca59190614efd565b811015613dab57600f600182613cbb9190614afe565b81548110613ccc57613ccb6148ca565b5b9060005260206000209060060201600f8381548110613cee57613ced6148ca565b5b90600052602060002090600602016000820160009054906101000a900473ffffffffffffffffffffffffffffffffffffffff168160000160006101000a81548173ffffffffffffffffffffffffffffffffffffffff021916908373ffffffffffffffffffffffffffffffffffffffff16021790555060018201548160010155600282015481600201556003820154816003015560048201548160040155600582015481600501559050508080613da3906148f9565b915050613c93565b50600f805480613dbe57613dbd614f31565b5b6001900381819060005260206000209060060201600080820160006101000a81549073ffffffffffffffffffffffffffffffffffffffff0219169055600182016000905560028201600090556003820160009055600482016000905560058201600090555050905550565b6000838311158290613e71576040517f08c379a0000000000000000000000000000000000000000000000000000000008152600401613e68919061408a565b60405180910390fd5b5060008385613e809190614efd565b9050809150509392505050565b60008060648385613e9e9190614687565b613ea89190614ecc565b905060008185613eb89190614efd565b9050809250505092915050565b600073ffffffffffffffffffffffffffffffffffffffff168173ffffffffffffffffffffffffffffffffffffffff1603613f34576040517f08c379a0000000000000000000000000000000000000000000000000000000008152600401613f2b90614fd2565b60405180910390fd5b8073ffffffffffffffffffffffffffffffffffffffff1660008054906101000a900473ffffffffffffffffffffffffffffffffffffffff1673ffffffffffffffffffffffffffffffffffffffff167f8be0079c531659141344cd1fd0a4f28419497f9722a3daafe3b4186f6b6457e060405160405180910390a3806000806101000a81548173ffffffffffffffffffffffffffffffffffffffff021916908373ffffffffffffffffffffffffffffffffffffffff16021790555050565b600081519050919050565b600082825260208201905092915050565b60005b8381101561402b578082015181840152602081019050614010565b8381111561403a576000848401525b50505050565b6000601f19601f8301169050919050565b600061405c82613ff1565b6140668185613ffc565b935061407681856020860161400d565b61407f81614040565b840191505092915050565b600060208201905081810360008301526140a48184614051565b905092915050565b600080fd5b600073ffffffffffffffffffffffffffffffffffffffff82169050919050565b60006140dc826140b1565b9050919050565b6140ec816140d1565b81146140f757600080fd5b50565b600081359050614109816140e3565b92915050565b6000819050919050565b6141228161410f565b811461412d57600080fd5b50565b60008135905061413f81614119565b92915050565b6000806040838503121561415c5761415b6140ac565b5b600061416a858286016140fa565b925050602061417b85828601614130565b9150509250929050565b60008115159050919050565b61419a81614185565b82525050565b60006020820190506141b56000830184614191565b92915050565b6141c48161410f565b82525050565b60006020820190506141df60008301846141bb565b92915050565b6000602082840312156141fb576141fa6140ac565b5b600061420984828501614130565b91505092915050565b60008060006060848603121561422b5761422a6140ac565b5b6000614239868287016140fa565b935050602061424a868287016140fa565b925050604061425b86828701614130565b9150509250925092565b600060ff82169050919050565b61427b81614265565b82525050565b60006020820190506142966000830184614272565b92915050565b600080600080608085870312156142b6576142b56140ac565b5b60006142c487828801614130565b94505060206142d587828801614130565b93505060406142e687828801614130565b92505060606142f787828801614130565b91505092959194509250565b6000819050919050565b600061432861432361431e846140b1565b614303565b6140b1565b9050919050565b600061433a8261430d565b9050919050565b600061434c8261432f565b9050919050565b61435c81614341565b82525050565b60006020820190506143776000830184614353565b92915050565b60008060408385031215614394576143936140ac565b5b60006143a285828601614130565b92505060206143b385828601614130565b9150509250929050565b6143c6816140d1565b82525050565b600060c0820190506143e160008301896143bd565b6143ee60208301886141bb565b6143fb60408301876141bb565b61440860608301866141bb565b61441560808301856141bb565b61442260a08301846141bb565b979650505050505050565b600060208284031215614443576144426140ac565b5b6000614451848285016140fa565b91505092915050565b600060208201905061446f60008301846143bd565b92915050565b6000614480826140d1565b9050919050565b61449081614475565b811461449b57600080fd5b50565b6000813590506144ad81614487565b92915050565b600080604083850312156144ca576144c96140ac565b5b60006144d88582860161449e565b92505060206144e98582860161449e565b9150509250929050565b6144fc81614185565b811461450757600080fd5b50565b600081359050614519816144f3565b92915050565b600060208284031215614535576145346140ac565b5b60006145438482850161450a565b91505092915050565b60008060408385031215614563576145626140ac565b5b6000614571858286016140fa565b9250506020614582858286016140fa565b9150509250929050565b7f4e487b7100000000000000000000000000000000000000000000000000000000600052602260045260246000fd5b600060028204905060018216806145d357607f821691505b6020821081036145e6576145e561458c565b5b50919050565b7f4f776e61626c653a2063616c6c6572206973206e6f7420746865206f776e6572600082015250565b6000614622602083613ffc565b915061462d826145ec565b602082019050919050565b6000602082019050818103600083015261465181614615565b9050919050565b7f4e487b7100000000000000000000000000000000000000000000000000000000600052601160045260246000fd5b60006146928261410f565b915061469d8361410f565b9250817fffffffffffffffffffffffffffffffffffffffffffffffffffffffffffffffff04831182151516156146d6576146d5614658565b5b828202905092915050565b60006040820190506146f660008301856143bd565b61470360208301846141bb565b9392505050565b600081519050614719816144f3565b92915050565b600060208284031215614735576147346140ac565b5b60006147438482850161470a565b91505092915050565b60008160011c9050919050565b6000808291508390505b60018511156147a35780860481111561477f5761477e614658565b5b600185161561478e5780820291505b808102905061479c8561474c565b9450614763565b94509492505050565b6000826147bc5760019050614878565b816147ca5760009050614878565b81600181146147e057600281146147ea57614819565b6001915050614878565b60ff8411156147fc576147fb614658565b5b8360020a91508482111561481357614812614658565b5b50614878565b5060208310610133831016604e8410600b841016171561484e5782820a90508381111561484957614848614658565b5b614878565b61485b8484846001614759565b9250905081840481111561487257614871614658565b5b81810290505b9392505050565b600061488a8261410f565b91506148958361410f565b92506148c27fffffffffffffffffffffffffffffffffffffffffffffffffffffffffffffffff84846147ac565b905092915050565b7f4e487b7100000000000000000000000000000000000000000000000000000000600052603260045260246000fd5b60006149048261410f565b91507fffffffffffffffffffffffffffffffffffffffffffffffffffffffffffffffff820361493657614935614658565b5b600182019050919050565b60008151905061495081614119565b92915050565b60006020828403121561496c5761496b6140ac565b5b600061497a84828501614941565b91505092915050565b7f57726f6e67204f7074696f6e2121000000000000000000000000000000000000600082015250565b60006149b9600e83613ffc565b91506149c482614983565b602082019050919050565b600060208201905081810360008301526149e8816149ac565b9050919050565b7f5374616b696e6720506f6f6c2069732050617573656421210000000000000000600082015250565b6000614a25601883613ffc565b9150614a30826149ef565b602082019050919050565b60006020820190508181036000830152614a5481614a18565b9050919050565b7f596f752063616e27742067657420726577617264204e6f772100000000000000600082015250565b6000614a91601983613ffc565b9150614a9c82614a5b565b602082019050919050565b60006020820190508181036000830152614ac081614a84565b9050919050565b6000606082019050614adc60008301866143bd565b614ae960208301856143bd565b614af660408301846141bb565b949350505050565b6000614b098261410f565b9150614b148361410f565b9250827fffffffffffffffffffffffffffffffffffffffffffffffffffffffffffffffff03821115614b4957614b48614658565b5b828201905092915050565b6000604082019050614b6960008301856143bd565b614b7660208301846143bd565b9392505050565b7f42455032303a20617070726f76652066726f6d20746865207a65726f2061646460008201527f7265737300000000000000000000000000000000000000000000000000000000602082015250565b6000614bd9602483613ffc565b9150614be482614b7d565b604082019050919050565b60006020820190508181036000830152614c0881614bcc565b9050919050565b7f42455032303a20617070726f766520746f20746865207a65726f20616464726560008201527f7373000000000000000000000000000000000000000000000000000000000000602082015250565b6000614c6b602283613ffc565b9150614c7682614c0f565b604082019050919050565b60006020820190508181036000830152614c9a81614c5e565b9050919050565b7f42455032303a207472616e736665722066726f6d20746865207a65726f20616460008201527f6472657373000000000000000000000000000000000000000000000000000000602082015250565b6000614cfd602583613ffc565b9150614d0882614ca1565b604082019050919050565b60006020820190508181036000830152614d2c81614cf0565b9050919050565b7f42455032303a207472616e7366657220746f20746865207a65726f206164647260008201527f6573730000000000000000000000000000000000000000000000000000000000602082015250565b6000614d8f602383613ffc565b9150614d9a82614d33565b604082019050919050565b60006020820190508181036000830152614dbe81614d82565b9050919050565b7f536166654d6174683a206164646974696f6e206f766572666c6f770000000000600082015250565b6000614dfb601b83613ffc565b9150614e0682614dc5565b602082019050919050565b60006020820190508181036000830152614e2a81614dee565b9050919050565b7f42455032303a206d696e7420746f20746865207a65726f206164647265737300600082015250565b6000614e67601f83613ffc565b9150614e7282614e31565b602082019050919050565b60006020820190508181036000830152614e9681614e5a565b9050919050565b7f4e487b7100000000000000000000000000000000000000000000000000000000600052601260045260246000fd5b6000614ed78261410f565b9150614ee28361410f565b925082614ef257614ef1614e9d565b5b828204905092915050565b6000614f088261410f565b9150614f138361410f565b925082821015614f2657614f25614658565b5b828203905092915050565b7f4e487b7100000000000000000000000000000000000000000000000000000000600052603160045260246000fd5b7f4f776e61626c653a206e6577206f776e657220697320746865207a65726f206160008201527f6464726573730000000000000000000000000000000000000000000000000000602082015250565b6000614fbc602683613ffc565b9150614fc782614f60565b604082019050919050565b60006020820190508181036000830152614feb81614faf565b905091905056fe42455032303a207472616e7366657220616d6f756e7420657863656564732062616c616e636542455032303a2064656372656173656420616c6c6f77616e63652062656c6f77207a65726fa264697066735822122009cab781609933f5ccf3ea3685fc3299807dcf8c3e8129e31d0ae87a65b8235e64736f6c634300080e0033",
  "immutableReferences": {},
  "source": "\r\n//SPDX-License-Identifier: MIT\r\npragma solidity ^0.8.0;\r\ninterface IBEP20 {\r\n  /**\r\n   * @dev Returns the amount of tokens in existence.\r\n   */\r\n  function totalSupply() external view returns (uint256);\r\n\r\n  /**\r\n   * @dev Returns the token decimals.\r\n   */\r\n  function decimals() external view returns (uint8);\r\n\r\n  /**\r\n   * @dev Returns the token symbol.\r\n   */\r\n  function symbol() external view returns (string memory);\r\n\r\n  /**\r\n  * @dev Returns the token name.\r\n  */\r\n  function name() external view returns (string memory);\r\n\r\n  /**\r\n   * @dev Returns the bep token owner.\r\n   */\r\n  function getOwner() external view returns (address);\r\n\r\n  /**\r\n   * @dev Returns the amount of tokens owned by `account`.\r\n   */\r\n  function balanceOf(address account) external view returns (uint256);\r\n\r\n  /**\r\n   * @dev Moves `amount` tokens from the caller's account to `recipient`.\r\n   *\r\n   * Returns a boolean value indicating whether the operation succeeded.\r\n   *\r\n   * Emits a {Transfer} event.\r\n   */\r\n  function transfer(address recipient, uint256 amount) external returns (bool);\r\n\r\n  /**\r\n   * @dev Returns the remaining number of tokens that `spender` will be\r\n   * allowed to spend on behalf of `owner` through {transferFrom}. This is\r\n   * zero by default.\r\n   *\r\n   * This value changes when {approve} or {transferFrom} are called.\r\n   */\r\n  function allowance(address _owner, address spender) external view returns (uint256);\r\n\r\n  /**\r\n   * @dev Sets `amount` as the allowance of `spender` over the caller's tokens.\r\n   *\r\n   * Returns a boolean value indicating whether the operation succeeded.\r\n   *\r\n   * IMPORTANT: Beware that changing an allowance with this method brings the risk\r\n   * that someone may use both the old and the new allowance by unfortunate\r\n   * transaction ordering. One possible solution to mitigate this race\r\n   * condition is to first reduce the spender's allowance to 0 and set the\r\n   * desired value afterwards:\r\n   * https://github.com/ethereum/EIPs/issues/20#issuecomment-263524729\r\n   *\r\n   * Emits an {Approval} event.\r\n   */\r\n  function approve(address spender, uint256 amount) external returns (bool);\r\n\r\n  /**\r\n   * @dev Moves `amount` tokens from `sender` to `recipient` using the\r\n   * allowance mechanism. `amount` is then deducted from the caller's\r\n   * allowance.\r\n   *\r\n   * Returns a boolean value indicating whether the operation succeeded.\r\n   *\r\n   * Emits a {Transfer} event.\r\n   */\r\n  function transferFrom(address sender, address recipient, uint256 amount) external returns (bool);\r\n\r\n  /**\r\n   * @dev Emitted when `value` tokens are moved from one account (`from`) to\r\n   * another (`to`).\r\n   *\r\n   * Note that `value` may be zero.\r\n   */\r\n  event Transfer(address indexed from, address indexed to, uint256 value);\r\n\r\n  /**\r\n   * @dev Emitted when the allowance of a `spender` for an `owner` is set by\r\n   * a call to {approve}. `value` is the new allowance.\r\n   */\r\n  event Approval(address indexed owner, address indexed spender, uint256 value);\r\n}\r\n\r\n/*\r\n * @dev Provides information about the current execution context, including the\r\n * sender of the transaction and its data. While these are generally available\r\n * via msg.sender and msg.data, they should not be accessed in such a direct\r\n * manner, since when dealing with GSN meta-transactions the account sending and\r\n * paying for execution may not be the actual sender (as far as an application\r\n * is concerned).\r\n *\r\n * This contract is only required for intermediate, library-like contracts.\r\n */\r\nabstract contract Context {\r\n    function _msgSender() internal view virtual returns (address) {\r\n        return msg.sender;\r\n    }\r\n\r\n    function _msgData() internal view virtual returns (bytes calldata) {\r\n        return msg.data;\r\n    }\r\n}\r\n\r\n\r\n/**\r\n * @dev Wrappers over Solidity's arithmetic operations with added overflow\r\n * checks.\r\n *\r\n * Arithmetic operations in Solidity wrap on overflow. This can easily result\r\n * in bugs, because programmers usually assume that an overflow raises an\r\n * error, which is the standard behavior in high level programming languages.\r\n * `SafeMath` restores this intuition by reverting the transaction when an\r\n * operation overflows.\r\n *\r\n * Using this library instead of the unchecked operations eliminates an entire\r\n * class of bugs, so it's recommended to use it always.\r\n */\r\nlibrary SafeMath {\r\n  /**\r\n   * @dev Returns the addition of two unsigned integers, reverting on\r\n   * overflow.\r\n   *\r\n   * Counterpart to Solidity's `+` operator.\r\n   *\r\n   * Requirements:\r\n   * - Addition cannot overflow.\r\n   */\r\n  function add(uint256 a, uint256 b) internal pure returns (uint256) {\r\n    uint256 c = a + b;\r\n    require(c >= a, \"SafeMath: addition overflow\");\r\n\r\n    return c;\r\n  }\r\n\r\n  /**\r\n   * @dev Returns the subtraction of two unsigned integers, reverting on\r\n   * overflow (when the result is negative).\r\n   *\r\n   * Counterpart to Solidity's `-` operator.\r\n   *\r\n   * Requirements:\r\n   * - Subtraction cannot overflow.\r\n   */\r\n  function sub(uint256 a, uint256 b) internal pure returns (uint256) {\r\n    return sub(a, b, \"SafeMath: subtraction overflow\");\r\n  }\r\n\r\n  /**\r\n   * @dev Returns the subtraction of two unsigned integers, reverting with custom message on\r\n   * overflow (when the result is negative).\r\n   *\r\n   * Counterpart to Solidity's `-` operator.\r\n   *\r\n   * Requirements:\r\n   * - Subtraction cannot overflow.\r\n   */\r\n  function sub(uint256 a, uint256 b, string memory errorMessage) internal pure returns (uint256) {\r\n    require(b <= a, errorMessage);\r\n    uint256 c = a - b;\r\n\r\n    return c;\r\n  }\r\n\r\n  /**\r\n   * @dev Returns the multiplication of two unsigned integers, reverting on\r\n   * overflow.\r\n   *\r\n   * Counterpart to Solidity's `*` operator.\r\n   *\r\n   * Requirements:\r\n   * - Multiplication cannot overflow.\r\n   */\r\n  function mul(uint256 a, uint256 b) internal pure returns (uint256) {\r\n    // Gas optimization: this is cheaper than requiring 'a' not being zero, but the\r\n    // benefit is lost if 'b' is also tested.\r\n    // See: https://github.com/OpenZeppelin/openzeppelin-contracts/pull/522\r\n    if (a == 0) {\r\n      return 0;\r\n    }\r\n\r\n    uint256 c = a * b;\r\n    require(c / a == b, \"SafeMath: multiplication overflow\");\r\n\r\n    return c;\r\n  }\r\n\r\n  /**\r\n   * @dev Returns the integer division of two unsigned integers. Reverts on\r\n   * division by zero. The result is rounded towards zero.\r\n   *\r\n   * Counterpart to Solidity's `/` operator. Note: this function uses a\r\n   * `revert` opcode (which leaves remaining gas untouched) while Solidity\r\n   * uses an invalid opcode to revert (consuming all remaining gas).\r\n   *\r\n   * Requirements:\r\n   * - The divisor cannot be zero.\r\n   */\r\n  function div(uint256 a, uint256 b) internal pure returns (uint256) {\r\n    return div(a, b, \"SafeMath: division by zero\");\r\n  }\r\n\r\n  /**\r\n   * @dev Returns the integer division of two unsigned integers. Reverts with custom message on\r\n   * division by zero. The result is rounded towards zero.\r\n   *\r\n   * Counterpart to Solidity's `/` operator. Note: this function uses a\r\n   * `revert` opcode (which leaves remaining gas untouched) while Solidity\r\n   * uses an invalid opcode to revert (consuming all remaining gas).\r\n   *\r\n   * Requirements:\r\n   * - The divisor cannot be zero.\r\n   */\r\n  function div(uint256 a, uint256 b, string memory errorMessage) internal pure returns (uint256) {\r\n    // Solidity only automatically asserts when dividing by 0\r\n    require(b > 0, errorMessage);\r\n    uint256 c = a / b;\r\n    // assert(a == b * c + a % b); // There is no case in which this doesn't hold\r\n\r\n    return c;\r\n  }\r\n\r\n  /**\r\n   * @dev Returns the remainder of dividing two unsigned integers. (unsigned integer modulo),\r\n   * Reverts when dividing by zero.\r\n   *\r\n   * Counterpart to Solidity's `%` operator. This function uses a `revert`\r\n   * opcode (which leaves remaining gas untouched) while Solidity uses an\r\n   * invalid opcode to revert (consuming all remaining gas).\r\n   *\r\n   * Requirements:\r\n   * - The divisor cannot be zero.\r\n   */\r\n  function mod(uint256 a, uint256 b) internal pure returns (uint256) {\r\n    return mod(a, b, \"SafeMath: modulo by zero\");\r\n  }\r\n\r\n  /**\r\n   * @dev Returns the remainder of dividing two unsigned integers. (unsigned integer modulo),\r\n   * Reverts with custom message when dividing by zero.\r\n   *\r\n   * Counterpart to Solidity's `%` operator. This function uses a `revert`\r\n   * opcode (which leaves remaining gas untouched) while Solidity uses an\r\n   * invalid opcode to revert (consuming all remaining gas).\r\n   *\r\n   * Requirements:\r\n   * - The divisor cannot be zero.\r\n   */\r\n  function mod(uint256 a, uint256 b, string memory errorMessage) internal pure returns (uint256) {\r\n    require(b != 0, errorMessage);\r\n    return a % b;\r\n  }\r\n}\r\n\r\n/**\r\n * @dev Contract module which provides a basic access control mechanism, where\r\n * there is an account (an owner) that can be granted exclusive access to\r\n * specific functions.\r\n *\r\n * By default, the owner account will be the one that deploys the contract. This\r\n * can later be changed with {transferOwnership}.\r\n *\r\n * This module is used through inheritance. It will make available the modifier\r\n * `onlyOwner`, which can be applied to your functions to restrict their use to\r\n * the owner.\r\n */\r\ncontract Ownable is Context {\r\n  address private _owner;\r\n\r\n  event OwnershipTransferred(address indexed previousOwner, address indexed newOwner);\r\n\r\n  /**\r\n   * @dev Initializes the contract setting the deployer as the initial owner.\r\n   */\r\n constructor() {\r\n        _transferOwnership(_msgSender());\r\n    }\r\n\r\n  /**\r\n   * @dev Returns the address of the current owner.\r\n   */\r\n  function owner() public view returns (address) {\r\n    return _owner;\r\n  }\r\n\r\n  /**\r\n   * @dev Throws if called by any account other than the owner.\r\n   */\r\n  modifier onlyOwner() {\r\n    require(_owner == _msgSender(), \"Ownable: caller is not the owner\");\r\n    _;\r\n  }\r\n\r\n  /**\r\n   * @dev Leaves the contract without owner. It will not be possible to call\r\n   * `onlyOwner` functions anymore. Can only be called by the current owner.\r\n   *\r\n   * NOTE: Renouncing ownership will leave the contract without an owner,\r\n   * thereby removing any functionality that is only available to the owner.\r\n   */\r\n  function renounceOwnership() public onlyOwner {\r\n    emit OwnershipTransferred(_owner, address(0));\r\n    _owner = address(0);\r\n  }\r\n\r\n  /**\r\n   * @dev Transfers ownership of the contract to a new account (`newOwner`).\r\n   * Can only be called by the current owner.\r\n   */\r\n  function transferOwnership(address newOwner) public onlyOwner {\r\n    _transferOwnership(newOwner);\r\n  }\r\n\r\n  /**\r\n   * @dev Transfers ownership of the contract to a new account (`newOwner`).\r\n   */\r\n  function _transferOwnership(address newOwner) internal {\r\n    require(newOwner != address(0), \"Ownable: new owner is the zero address\");\r\n    emit OwnershipTransferred(_owner, newOwner);\r\n    _owner = newOwner;\r\n  }\r\n}\r\n\r\ncontract ARTEXtoken is Context, IBEP20, Ownable {\r\n  using SafeMath for uint256;\r\n\r\n  mapping (address => uint256) private _balances;\r\n\r\n  mapping (address => mapping (address => uint256)) private _allowances;\r\n\r\n  uint256 private _totalSupply;\r\n  uint8 private _decimals;\r\n  string private _symbol;\r\n  string private _name;\r\n\r\n  constructor()  {\r\n    _name = \"Artex Token\";\r\n    _symbol = \"ARTEX\";\r\n    _decimals = 18;\r\n    _totalSupply = 100000000 * 10 ** 18;\r\n    _balances[msg.sender] = _totalSupply;\r\n\r\n    emit Transfer(address(0), msg.sender, _totalSupply);\r\n  }\r\n\r\n  /**\r\n   * @dev Returns the bep token owner.\r\n   */\r\n  function getOwner() external view override returns (address) {\r\n    return owner();\r\n  }\r\n\r\n\r\n\r\n  /**\r\n   * @dev Returns the token decimals.\r\n   */\r\n  function decimals() external view override returns (uint8) {\r\n    return _decimals;\r\n  }\r\n\r\n  /**\r\n   * @dev Returns the token symbol.\r\n   */\r\n  function symbol() external view override returns (string memory) {\r\n    return _symbol;\r\n  }\r\n\r\n  /**\r\n  * @dev Returns the token name.\r\n  */\r\n  function name() external view override returns (string memory) {\r\n    return _name;\r\n  }\r\n\r\n  /**\r\n   * @dev See {BEP20-totalSupply}.\r\n   */\r\n  function totalSupply() external view override returns (uint256) {\r\n    return _totalSupply;\r\n  }\r\n\r\n  /**\r\n   * @dev See {BEP20-balanceOf}.\r\n   */\r\n  function balanceOf(address account) external view override returns (uint256) {\r\n    return _balances[account];\r\n  }\r\n\r\n  /**\r\n   * @dev See {BEP20-transfer}.\r\n   *\r\n   * Requirements:\r\n   *\r\n   * - `recipient` cannot be the zero address.\r\n   * - the caller must have a balance of at least `amount`.\r\n   */\r\n  function transfer(address recipient, uint256 amount) external override returns (bool) {\r\n    _transfer(_msgSender(), recipient, amount);\r\n    return true;\r\n  }\r\n\r\n  /**\r\n   * @dev See {BEP20-allowance}.\r\n   */\r\n  function allowance(address owner, address spender) external view override returns (uint256) {\r\n    return _allowances[owner][spender];\r\n  }\r\n\r\n  /**\r\n   * @dev See {BEP20-approve}.\r\n   *\r\n   * Requirements:\r\n   *\r\n   * - `spender` cannot be the zero address.\r\n   */\r\n  function approve(address spender, uint256 amount) external override returns (bool) {\r\n    _approve(_msgSender(), spender, amount);\r\n    return true;\r\n  }\r\n\r\n  /**\r\n   * @dev See {BEP20-transferFrom}.\r\n   *\r\n   * Emits an {Approval} event indicating the updated allowance. This is not\r\n   * required by the EIP. See the note at the beginning of {BEP20};\r\n   *\r\n   * Requirements:\r\n   * - `sender` and `recipient` cannot be the zero address.\r\n   * - `sender` must have a balance of at least `amount`.\r\n   * - the caller must have allowance for `sender`'s tokens of at least\r\n   * `amount`.\r\n   */\r\n  function transferFrom(address sender, address recipient, uint256 amount) external override returns (bool) {\r\n    _transfer(sender, recipient, amount);\r\n    _approve(sender, recipient, amount);\r\n   \r\n   \r\n    //_approve(sender, _msgSender(), _allowances[sender][_msgSender()].sub(amount, \"BEP20: transfer amount exceeds allowance\"));\r\n    return true;\r\n  }\r\n\r\n  /**\r\n   * @dev Atomically increases the allowance granted to `spender` by the caller.\r\n   *\r\n   * This is an alternative to {approve} that can be used as a mitigation for\r\n   * problems described in {BEP20-approve}.\r\n   *\r\n   * Emits an {Approval} event indicating the updated allowance.\r\n   *\r\n   * Requirements:\r\n   *\r\n   * - `spender` cannot be the zero address.\r\n   */\r\n  function increaseAllowance(address spender, uint256 addedValue) public returns (bool) {\r\n    _approve(_msgSender(), spender, _allowances[_msgSender()][spender].add(addedValue));\r\n    return true;\r\n  }\r\n\r\n  /**\r\n   * @dev Atomically decreases the allowance granted to `spender` by the caller.\r\n   *\r\n   * This is an alternative to {approve} that can be used as a mitigation for\r\n   * problems described in {BEP20-approve}.\r\n   *\r\n   * Emits an {Approval} event indicating the updated allowance.\r\n   *\r\n   * Requirements:\r\n   *\r\n   * - `spender` cannot be the zero address.\r\n   * - `spender` must have allowance for the caller of at least\r\n   * `subtractedValue`.\r\n   */\r\n  function decreaseAllowance(address spender, uint256 subtractedValue) public returns (bool) {\r\n    _approve(_msgSender(), spender, _allowances[_msgSender()][spender].sub(subtractedValue, \"BEP20: decreased allowance below zero\"));\r\n    return true;\r\n  }\r\n\r\n  /**\r\n   * @dev Creates `amount` tokens and assigns them to `msg.sender`, increasing\r\n   * the total supply.\r\n   *\r\n   * Requirements\r\n   *\r\n   * - `msg.sender` must be the token owner\r\n   */\r\n  function mint(uint256 amount) public onlyOwner returns (bool) {\r\n    _mint(_msgSender(), amount);\r\n    return true;\r\n  }\r\n\r\n  /**\r\n   * @dev Moves tokens `amount` from `sender` to `recipient`.\r\n   *\r\n   * This is internal function is equivalent to {transfer}, and can be used to\r\n   * e.g. implement automatic token fees, slashing mechanisms, etc.\r\n   *\r\n   * Emits a {Transfer} event.\r\n   *\r\n   * Requirements:\r\n   *\r\n   * - `sender` cannot be the zero address.\r\n   * - `recipient` cannot be the zero address.\r\n   * - `sender` must have a balance of at least `amount`.\r\n   */\r\n  function _transfer(address sender, address recipient, uint256 amount) internal {\r\n    require(sender != address(0), \"BEP20: transfer from the zero address\");\r\n    require(recipient != address(0), \"BEP20: transfer to the zero address\");\r\n\r\n    _balances[sender] = _balances[sender].sub(amount, \"BEP20: transfer amount exceeds balance\");\r\n    _balances[recipient] = _balances[recipient].add(amount);\r\n    emit Transfer(sender, recipient, amount);\r\n  }\r\n\r\n  /** @dev Creates `amount` tokens and assigns them to `account`, increasing\r\n   * the total supply.\r\n   *\r\n   * Emits a {Transfer} event with `from` set to the zero address.\r\n   *\r\n   * Requirements\r\n   *\r\n   * - `to` cannot be the zero address.\r\n   */\r\n  function _mint(address account, uint256 amount) internal {\r\n    require(account != address(0), \"BEP20: mint to the zero address\");\r\n\r\n    _totalSupply = _totalSupply.add(amount);\r\n    _balances[account] = _balances[account].add(amount);\r\n    emit Transfer(address(0), account, amount);\r\n  }\r\n\r\n  /**\r\n   * @dev Destroys `amount` tokens from `account`, reducing the\r\n   * total supply.\r\n   *\r\n   * Emits a {Transfer} event with `to` set to the zero address.\r\n   *\r\n   * Requirements\r\n   *\r\n   * - `account` cannot be the zero address.\r\n   * - `account` must have at least `amount` tokens.\r\n   */\r\n  function _burn(address account, uint256 amount) internal {\r\n    require(account != address(0), \"BEP20: burn from the zero address\");\r\n\r\n    _balances[account] = _balances[account].sub(amount, \"BEP20: burn amount exceeds balance\");\r\n    _totalSupply = _totalSupply.sub(amount);\r\n    emit Transfer(account, address(0), amount);\r\n  }\r\n\r\n  /**\r\n   * @dev Sets `amount` as the allowance of `spender` over the `owner`s tokens.\r\n   *\r\n   * This is internal function is equivalent to `approve`, and can be used to\r\n   * e.g. set automatic allowances for certain subsystems, etc.\r\n   *\r\n   * Emits an {Approval} event.\r\n   *\r\n   * Requirements:\r\n   *\r\n   * - `owner` cannot be the zero address.\r\n   * - `spender` cannot be the zero address.\r\n   */\r\n  function _approve(address owner, address spender, uint256 amount) internal {\r\n    require(owner != address(0), \"BEP20: approve from the zero address\");\r\n    require(spender != address(0), \"BEP20: approve to the zero address\");\r\n\r\n    _allowances[owner][spender] = amount;\r\n    emit Approval(owner, spender, amount);\r\n  }\r\n\r\n  /**\r\n   * @dev Destroys `amount` tokens from `account`.`amount` is then deducted\r\n   * from the caller's allowance.\r\n   *\r\n   * See {_burn} and {_approve}.\r\n   */\r\n  function _burnFrom(address account, uint256 amount) internal {\r\n    _burn(account, amount);\r\n    _approve(account, _msgSender(), _allowances[account][_msgSender()].sub(amount, \"BEP20: burn amount exceeds allowance\"));\r\n  }\r\n}\r\n\r\n\r\ncontract Staking_Pool is ARTEXtoken {\r\n\r\n    bool public paused = false;\r\n\r\n    uint256 private token_decimal = 1 * 10 ** 18;\r\n    uint256 private R_token_decimal = 1 * 10 ** 18;\r\n\r\n    uint256 public _60Days_Reward;\r\n    uint256 public _90Days_Reward;\r\n    uint256 public _120Days_Reward;\r\n    uint256 public _365Days_Reward;\r\n\r\n  \r\n    \r\n    uint public deductionPer;\r\n\r\n    struct dataBase {\r\n        address person;\r\n        uint256 duration;\r\n        uint256 stake_time;\r\n        uint256 amount;\r\n        uint256 id;  // 1 = 60 days , 2 = 90 days, 3 = 120 days, 4 = 365 days\r\n        uint256 count;\r\n    }\r\n\r\n    dataBase[] public _userdata;\r\n  \r\n  // number of all investment\r\n  uint private totalInvestmentCount;\r\n\r\n    mapping(address=>uint256) public user_rtime;\r\n\r\n    IBEP20 public Stake_Token;\r\n    IBEP20 public Reward_Token;\r\n\r\n\r\n\r\n\r\n    function Token_Modifier(IBEP20 _Stake, IBEP20 _Reward) public onlyOwner{\r\n        Stake_Token = _Stake;\r\n        Reward_Token = _Reward;\r\n    }\r\n\r\n    function set_Reward( uint _60days, uint _90days, uint _120days, uint _365days) public onlyOwner {\r\n        _60Days_Reward = _60days * R_token_decimal;\r\n        _90Days_Reward = _90days * R_token_decimal;\r\n        _120Days_Reward = _120days * R_token_decimal;\r\n        _365Days_Reward = _365days * R_token_decimal;\r\n    }\r\n\r\n    function setDec(uint tokenA, uint tokenB) public onlyOwner {\r\n        token_decimal = 1 * 10 ** tokenA;\r\n        R_token_decimal = 1 * 10 ** tokenB;\r\n    }\r\n\r\n function setDeductionPer(uint per) public onlyOwner {\r\n        deductionPer = per;\r\n    }\r\n\r\n    function Stake(uint _pid,uint256 _amount) public { \r\n        \r\n        address _person = msg.sender;\r\n        require(!paused,\"Staking Pool is Paused!!\");\r\n        _amount = _amount * token_decimal;\r\n       // require(Stake_Token.allowance(msg.sender,address(this)) >= _amount,\"Check your Allowance\");\r\n        Stake_Token.transferFrom(msg.sender,address(this),_amount);\r\n        if(_pid == 1) {           \r\n            uint256 time = block.timestamp + 60 days;   //make it to 60 days\r\n            user_rtime[_person] = time;\r\n\r\n            dataBase memory newdata = dataBase(_person,time,block.timestamp,_amount,_pid,totalInvestmentCount);  /// order must be same\r\n           _userdata.push(newdata);   \r\n            totalInvestmentCount++;\r\n        }\r\n\r\n        else if(_pid == 2) {\r\n            uint256 time = block.timestamp + 90 days; //60 days;\r\n            user_rtime[_person] = time;\r\n\r\n            dataBase memory newdata = dataBase(_person,time,block.timestamp,_amount,_pid,totalInvestmentCount);  /// order must be same\r\n           _userdata.push(newdata);   \r\n            totalInvestmentCount++;\r\n        }\r\n\r\n        else if(_pid == 3) {\r\n            uint256 time = block.timestamp +  120 days; //90 days;\r\n            user_rtime[_person] = time;\r\n\r\n            dataBase memory newdata = dataBase(_person,time,block.timestamp,_amount,_pid,totalInvestmentCount);  /// order must be same\r\n           _userdata.push(newdata);   \r\n            totalInvestmentCount++;\r\n        }\r\n        else if(_pid == 4) {\r\n            uint256 time = block.timestamp +  365 days; //90 days;\r\n            user_rtime[_person] = time;\r\n\r\n            dataBase memory newdata = dataBase(_person,time,block.timestamp,_amount,_pid,totalInvestmentCount);  /// order must be same\r\n           _userdata.push(newdata);   \r\n            totalInvestmentCount++;\r\n        }\r\n    }\r\n\r\n     function getCount()\r\n      external\r\n      view\r\n      returns (uint)\r\n    {\r\n      return _userdata.length;\r\n    }\r\n\r\n    function get_Reward(uint _cnt) public {\r\n\r\n        require(!paused,\"Staking Pool is Paused!!\");\r\n\r\n        for(uint i = 0 ; i < _userdata.length ; i++) {\r\n            \r\n            if(_userdata[i].person == msg.sender){\r\n\r\n                if(_userdata[i].id == 1 && _userdata[i].count == _cnt) {  //60 days\r\n                    require(block.timestamp >= _userdata[i].duration,\"You can't get reward Now!\");\r\n                    \r\n                    Reward_Token.transfer(msg.sender,calulateReward(_userdata[i].amount,_60Days_Reward));\r\n                    Stake_Token.transfer(msg.sender,_userdata[i].amount);\r\n                    \r\n                    remove_data(i);\r\n                    user_rtime[msg.sender] = 0;\r\n                    break;\r\n                }\r\n                else if(_userdata[i].id == 2  && _userdata[i].count == _cnt) { //60 days\r\n                    require(block.timestamp >= _userdata[i].duration,\"You can't get reward Now!\");\r\n                    \r\n                    Reward_Token.transfer(msg.sender,calulateReward(_userdata[i].amount,_90Days_Reward));\r\n                    Stake_Token.transfer(msg.sender,_userdata[i].amount);\r\n                    \r\n                    remove_data(i);\r\n                    user_rtime[msg.sender] = 0;\r\n                    break;\r\n                }\r\n                else if(_userdata[i].id == 3 && _userdata[i].count == _cnt) { //120 days\r\n                    require(block.timestamp >= _userdata[i].duration,\"You can't get reward Now!\");\r\n                    \r\n                    Reward_Token.transfer(msg.sender,calulateReward(_userdata[i].amount,_120Days_Reward));\r\n                    Stake_Token.transfer(msg.sender,_userdata[i].amount);\r\n                    \r\n                    remove_data(i);\r\n                    user_rtime[msg.sender] = 0;\r\n                    break;\r\n                }\r\n                else if(_userdata[i].id == 4 && _userdata[i].count == _cnt) { //365 days\r\n                    require(block.timestamp >= _userdata[i].duration,\"You can't get reward Now!\");\r\n                    \r\n                    Reward_Token.transfer(msg.sender,calulateReward(_userdata[i].amount,_365Days_Reward));\r\n                    Stake_Token.transfer(msg.sender,_userdata[i].amount);\r\n                    \r\n                    remove_data(i);\r\n                    user_rtime[msg.sender] = 0;\r\n                    break;\r\n                }\r\n            }\r\n        }\r\n    }\r\n\r\n    function check_index() public view returns (uint index){\r\n        for(uint i = 0 ; i < _userdata.length ; i++) {\r\n            if(_userdata[i].person == msg.sender){\r\n                return i;\r\n            }\r\n        }\r\n    }\r\n\r\n    function OpenReward(uint _cnt) public {\r\n\r\n         require(!paused,\"Staking Pool is Paused!!\");\r\n\r\n        for(uint i = 0 ; i < _userdata.length ; i++) {\r\n            \r\n            if(_userdata[i].person == msg.sender){\r\n\r\n               if(_userdata[i].id == 1 && _userdata[i].count == _cnt) { //60 days\r\n                    \r\n                    Stake_Token.transfer(msg.sender,getCancelCal(_userdata[i].amount,deductionPer));\r\n                    \r\n                    remove_data(i);\r\n                    user_rtime[msg.sender] = 0;\r\n                    break;\r\n                }\r\n                else if(_userdata[i].id == 2 && _userdata[i].count == _cnt) { //90 days\r\n                    \r\n                    Stake_Token.transfer(msg.sender,getCancelCal(_userdata[i].amount,deductionPer));\r\n                    \r\n                    remove_data(i);\r\n                    user_rtime[msg.sender] = 0;\r\n                    break;\r\n                }\r\n                else if(_userdata[i].id == 3 && _userdata[i].count == _cnt) { //120 days\r\n                    \r\n                    Stake_Token.transfer(msg.sender,getCancelCal(_userdata[i].amount,deductionPer));\r\n                    \r\n                    remove_data(i);\r\n                    user_rtime[msg.sender] = 0;\r\n                    break;\r\n                }\r\n                else if(_userdata[i].id == 4 && _userdata[i].count == _cnt) { //365 days\r\n                    \r\n                    Stake_Token.transfer(msg.sender,getCancelCal(_userdata[i].amount,deductionPer));\r\n                    \r\n                    remove_data(i);\r\n                    user_rtime[msg.sender] = 0;\r\n                    break;\r\n                }\r\n            }\r\n        }\r\n\r\n    }\r\n\r\n    function getCancelCal(uint _amount, uint _per) internal pure returns (uint) {\r\n        uint num;\r\n        num = (_amount * _per ) / 100;\r\n        uint total = _amount - num;\r\n        return total;\r\n    }\r\n    function calulateReward(uint _amount, uint _per) internal pure returns (uint) {\r\n        uint rew;\r\n        rew = (_amount * _per ) / 100;\r\n        return rew;\r\n    }\r\n\r\n    function remove_data(uint _pid) private {\r\n      //  _userdata[_pid].person = address(0);\r\n      //  _userdata[_pid].duration = 0;\r\n      //  _userdata[_pid].stake_time = 0;\r\n      //  _userdata[_pid].amount = 0;\r\n     //   _userdata[_pid].id = 0;\r\n      //  _userdata[_pid].count = 0;\r\n      for( uint i = _pid; i < _userdata.length -1 ; i++)\r\n      {\r\n        _userdata [_pid] = _userdata[i+1];        \r\n      }\r\n      _userdata.pop();\r\n\r\n\r\n    }\r\n\r\n    function Check_Allowance() public view returns (uint) {\r\n        return Stake_Token.allowance(msg.sender,address(this));\r\n    }\r\n\r\n    function Pool_Balance(uint _pid) public view returns (uint) {\r\n        if(_pid == 1) { return Stake_Token.balanceOf(address(this)); }\r\n        if(_pid == 2) { return Reward_Token.balanceOf(address(this)); }\r\n        if(_pid == 3) { return Reward_Token.balanceOf(address(this)); }\r\n        if(_pid == 4) { return Reward_Token.balanceOf(address(this)); }\r\n\r\n        else { revert(\"Wrong Option!!\"); }\r\n    }\r\n\r\n    function Token_Balance(uint _pid) public view returns (uint) {\r\n        if(_pid == 1) { return Stake_Token.balanceOf(msg.sender); }\r\n        if(_pid == 2) { return Reward_Token.balanceOf(msg.sender); }\r\n        if(_pid == 3) { return Reward_Token.balanceOf(msg.sender); }\r\n        if(_pid == 4) { return Reward_Token.balanceOf(msg.sender); }\r\n\r\n\r\n        else { revert(\"Wrong Option!!\"); }\r\n    }\r\n\r\n    function EmergencyPause() public onlyOwner {\r\n        Stake_Token.transfer(msg.sender,address(this).balance);\r\n        Reward_Token.transfer(msg.sender,address(this).balance);\r\n    }\r\n\r\n    function Pause_Pool(bool _bool) public onlyOwner {\r\n        paused = _bool;\r\n    }\r\n\r\n}",
  "sourcePath": "D:\\Projects\\blockchainProject\\artex\\contracts\\Staking_Pool.sol",
  "compiler": {
    "name": "solc",
    "version": "0.8.14+commit.80d49f37.Emscripten.clang"
  },
  "schemaVersion": "3.4.7",
  "updatedAt": "2022-06-26T16:49:18.590Z",
  "networkType": "ethereum",
  "devdoc": {
    "kind": "dev",
    "methods": {
      "allowance(address,address)": {
        "details": "See {BEP20-allowance}."
      },
      "approve(address,uint256)": {
        "details": "See {BEP20-approve}. Requirements: - `spender` cannot be the zero address."
      },
      "balanceOf(address)": {
        "details": "See {BEP20-balanceOf}."
      },
      "decimals()": {
        "details": "Returns the token decimals."
      },
      "decreaseAllowance(address,uint256)": {
        "details": "Atomically decreases the allowance granted to `spender` by the caller. This is an alternative to {approve} that can be used as a mitigation for problems described in {BEP20-approve}. Emits an {Approval} event indicating the updated allowance. Requirements: - `spender` cannot be the zero address. - `spender` must have allowance for the caller of at least `subtractedValue`."
      },
      "getOwner()": {
        "details": "Returns the bep token owner."
      },
      "increaseAllowance(address,uint256)": {
        "details": "Atomically increases the allowance granted to `spender` by the caller. This is an alternative to {approve} that can be used as a mitigation for problems described in {BEP20-approve}. Emits an {Approval} event indicating the updated allowance. Requirements: - `spender` cannot be the zero address."
      },
      "mint(uint256)": {
        "details": "Creates `amount` tokens and assigns them to `msg.sender`, increasing the total supply. Requirements - `msg.sender` must be the token owner"
      },
      "name()": {
        "details": "Returns the token name."
      },
      "owner()": {
        "details": "Returns the address of the current owner."
      },
      "renounceOwnership()": {
        "details": "Leaves the contract without owner. It will not be possible to call `onlyOwner` functions anymore. Can only be called by the current owner. NOTE: Renouncing ownership will leave the contract without an owner, thereby removing any functionality that is only available to the owner."
      },
      "symbol()": {
        "details": "Returns the token symbol."
      },
      "totalSupply()": {
        "details": "See {BEP20-totalSupply}."
      },
      "transfer(address,uint256)": {
        "details": "See {BEP20-transfer}. Requirements: - `recipient` cannot be the zero address. - the caller must have a balance of at least `amount`."
      },
      "transferFrom(address,address,uint256)": {
        "details": "See {BEP20-transferFrom}. Emits an {Approval} event indicating the updated allowance. This is not required by the EIP. See the note at the beginning of {BEP20}; Requirements: - `sender` and `recipient` cannot be the zero address. - `sender` must have a balance of at least `amount`. - the caller must have allowance for `sender`'s tokens of at least `amount`."
      },
      "transferOwnership(address)": {
        "details": "Transfers ownership of the contract to a new account (`newOwner`). Can only be called by the current owner."
      }
    },
    "version": 1
  },
  "userdoc": {
    "kind": "user",
    "methods": {},
    "version": 1
  }
}